:060000000A128A110C280F
:10000800FE00030EF0000A08F1000A128A15D52F27
:100018000A128A110F2883136230FD000E30FE0089
:100028005730FF00583084000A128A15CB260A126E
:100038008A114830840058300A128A1521260A127B
:100048008A11FA01FB0183010A128A11F62AFF1BA1
:10005800352883137F1883170008840A0319FF0AB9
:10006800080000308A000408840A82070034BA3481
:10007800B434A534A834AB34AE344C346F3467345C
:1000880069346E34203453347534633463346534DE
:1000980073347334663475346C340A340034503431
:1000A80061347334733457346F34723464343A348B
:1000B80020342034203420342034203420340034B8
:1000C80044346534763469346334653420344C34CC
:1000D8006F3463346B346534643420342034203412
:1000E800003443346F346E3474346134633474349C
:1000F8002034413464346D3469346E34203420340F
:100108002034003449346E34763461346C346934C4
:100118006434203445346E34743472347934203481
:1001280020342034003443346F34723472346534EC
:1001380063347434203445346E347434723479340E
:10014800203420342034003441346334633465343B
:100158007334733420344734723461346E347434F5
:100168006534643420342034003449346E347634B1
:1001780061346C3469346434203445346E347434F6
:10018800723479340A34003420344C34653466349B
:100198007434213420342034203420342034203462
:1001A800203420340034543449344D344534003438
:1001B8004334203400344734313400344734323443
:1001C800003447343334003447343434003453343F
:1001D8004434003447344E3400344F344E34003401
:1001E80047345234003445345634003483120313F0
:1001F800A6005A08031D0129022908290A128A158E
:10020800F1260A128A118E294D08031D0C290D2981
:100218002B290A128A15B6260A128A111930F600F5
:100228008030F7008030F8000A128A117F270A12FE
:100238008A110A128A1518260A128A110A128A15B0
:100248001C260A128A11013083120313CD000A12E8
:100258008A1116270A128A118312031326080A1212
:100268008A11CD240A128A110A128A1112220A123C
:100278008A118312031326080A128A114C270A12BC
:100288008A11831203134F03031D4B294C298E290E
:100298000A128A15B6260A128A115D30F6008030D5
:1002A800F7008030F8000A128A117F270A128A1193
:1002B8006E30F6008030F700C030F8000A128A115C
:1002C8007F270A128A111A3083120313A5005E30A1
:1002D800A4006D30A300A30B6F29A40B6F29A50BF5
:1002E8006F2976290730F3000A128A153C270A126B
:1002F8008A1183120313CF01FA01CE01CD010A122C
:100308008A151C260A128A1102300A128A156C26CE
:100318000A128A110800F900BD30F6008030F70093
:100328008A30F8000A128A117F270A128A113E3091
:100338007906031DA029A129AD297B08031DA5293C
:10034800A629AD29013083120313D2000130FB0026
:10035800DB293D307906031DB229B329C5297B085D
:10036800031DB729B829C529013083120313D20008
:1003780005305B020318C129C229DB290130DB07DC
:10038800DB293B307906031DCA29CB29DB297B08E9
:10039800031DCF29D029DB29013083120313D20092
:1003A8005B080319D829D929DB290130DB027B0333
:1003B800031DDF29E029EC29A230F6008030F70080
:1003C800CA30F8000A128A117F270A128A11112AE4
:1003D800831203135203031DF229F329062A5B082B
:1003E800013E84000A128A1135200A128A11F60089
:1003F8008030F700CA30F8000A128A117F270A12E3
:100408008A11112AB730F6008030F700CA30F80098
:100418000A128A117F270A128A11080004307A0604
:100428000319172A182A192A832A83120313D701B2
:100438005D30F2005330F3000A128A1130260A1296
:100448008A1172087304031D2A2A2B2A302A0130C4
:1004580083120313CF00832A7F30F3000A128A1510
:100468003C270A128A11013083120313DA020A1296
:100478008A15B6260A128A114C30F6008030F70029
:100488008030F8000A128A117F270A128A11C030B8
:10049800F600831203135A08303E0A128A15A5265D
:1004A8000A128A118E30F6008030F700C130F80049
:1004B8000A128A117F270A128A1133308312031312
:1004C800A200BB30A100DF30A000A00B692AA10B5D
:1004D800692AA20B692AFA0183120313CE01CD01FE
:1004E8000A128A1518260A128A110A128A151C2657
:1004F8000A128A110A128A15B6260A128A110800E7
:10050800B130F6008030F7008D30F8000A128A11F9
:100518007F270A128A11003083120313AF000030BC
:10052800AE000330AD00FF30AC0000300A128A156F
:1005380021270A128A11720883120313B90073085B
:10054800BA00BB01BC013C08A3003B08A2003A0862
:10055800A1003908A0000030A7000030A600003034
:10056800A5006430A4000A128A1169250A128A11AA
:10057800831203132308B3002208B2002108B10034
:100588002008B0000A128A115D230A128A11831208
:1005980003132D08CB002C08CA0059084B06031D6D
:1005A800D72A58084A060319DA2ADB2AF52A4B08FB
:1005B800D9004A08D8004B08A5004A08A4003D30D5
:1005C800A6000A128A1177240A128A113D30F60011
:1005D8000030F700CD30F8000A128A117F270A127E
:1005E8008A1108000A128A11DE260A128A110030BE
:1005F8000A128A111E250A128A1183120313C700D0
:10060800322B37304706031D0A2B0B2B122B0130D8
:100618000A128A156C260A128A11FB2A47080A123E
:100628008A1576270A128A11FB2A3E304706031DCF
:100638001E2B1F2B2B2B0A128A11F9270A128A113B
:1006480000300A128A156C260A128A11112B4708E3
:100658000A128A11FA200A128A11FB2A0A128A152A
:1006680014260A128A1183120313C500C60146080C
:10067800003A0319402BFB2A4508003A0319052BB9
:10068800013A0319192B033A0319FB2A013A0319F2
:10069800FB2A073A0319FB2A013A0319FB2A033AF2
:1006A8000319FB2A013A0319FB2AFB2A0A128A11A9
:1006B8000C28003083120313B7000030B600003056
:1006C800B5000030B4002F082E042D042C040319A3
:1006D8006E2B6F2BBA2B0130B8007D2B0130F70041
:1006E8000310AC0DAD0DAE0DAF0DF70B742B013033
:1006F800B807AF1F802B812B722B0130F700031036
:10070800B40DB50DB60DB70DF70B832B2F083302BB
:10071800031D982B2E083202031D982B2D08310239
:10072800031D982B2C083002031C9B2B9C2BAB2BF6
:100738002C08B0022D08031C2D0FB1022E08031C33
:100748002E0FB2022F08031C2F0FB30234140130EE
:100758000310AF0CAE0CAD0CAC0CFF3E031DAC2B64
:100768000130B802031DB92BBA2B812B3708AF0013
:100778003608AE003508AD003408AC0008009D30DE
:10078800F6008030F7008030F8000A128A117F27BF
:100798000A128A117908023E840083130008831222
:1007A8000313A00004300310A00CFF3E031DD72B39
:1007B80020080339303EA1007908023E8400000871
:1007C8000F39303EA2003A30A300790A84000008AD
:1007D800A00004300310A00CFF3E031DEE2B2008E0
:1007E8000739303EA400790A840000080F39303EEA
:1007F800A5003A30A600790884000008A00004305B
:100808000310A00CFF3E031D042C20080739303EBE
:10081800A7007908840000080F39303EA800A90114
:100828002130F6000030F700C030F8000A128A11B3
:100838007F270A128A110800C330F700CD30F6006E
:10084800F60B242CF70B242CF20133300A128A15EC
:1008580095270A128A111B30F7009E30F600F60B16
:10086800332CF70B332C0000F20133300A128A15AF
:1008780095270A128A11A630F600F60B412C0000C3
:10088800F20133300A128A1595270A128A114C2C64
:100898004D2C0000F20138300A128A1595270A12E9
:1008A8008A11A630F600F60B572C0000F201013031
:1008B8000A128A1595270A128A110430F7003D306A
:1008C800F600F60B652CF70B652C6A2CF2010C3040
:1008D8000A128A1595270A128A11A630F600F60B15
:1008E800732C000008008312031326088400643068
:1008F800F2000030F3002508F5002408F4000A127D
:100908008A11B1250A128A117208303E83138000B9
:1009180083120313260A84000A30A0000030A100C5
:100928000A30F2000030F3002508F5002408F4002E
:100938000A128A11B1250A128A1173088312031345
:10094800A3007208A2000A128A116B260A128A11E1
:10095800831203132008303E831380002608023ECA
:1009680084000A30A0000030A1002508A300240854
:10097800A2000A128A116B260A128A118312031323
:100988002008303E831380002608033E840080013F
:10099800080083120313A20032304E020318D52C2C
:1009A800D62CD92C0130CE071D2D3730220603193D
:1009B800DE2CDF2CE52C2F302206031DE42CE52C41
:1009C8001D2D373022060319EA2CEB2CF02C313080
:1009D800A0000030A100F42C3030A0000030A100AD
:1009E8007A08533E84002008831380007A08C03EAA
:1009F800F6002A300A128A15A5260A128A11013031
:100A0800FA070A128A1518260A128A110130831267
:100A18000313D00004307A020318132D142D1D2D52
:100A28007A08C03EF6005F300A128A15A5260A1217
:100A38008A110800F3007303031D232D242D292D8B
:100A48008312031306083F39682D7308031D2D2DE3
:100A58002E2D672D3F30831203130605F2003F3019
:100A680072060319382D392D5C2D5C0803193D2DAC
:100A78003E2D5C2DF401F5010130F4070318F50A49
:100A88000030F50701307502F43003197402031CB5
:100A98004E2D4F2D402D3F30831203130605F200D3
:100AA8003F3072060319592D5A2D672DDC01242D6C
:100AB8003F300605F2003F307206031D642D652D98
:100AC800672D0130DC003F3008000030831203132B
:100AD800AB000030AA000030A9000030A800201C9C
:100AE800762D772D8E2D2408A807250803110318C5
:100AF800013E0319802DA907260803110318013E9A
:100B08000319872DAA07270803110318013E0319A3
:100B18008E2DAB070130F6000310A40DA50DA60D10
:100B2800A70DF60B902D01300310A30CA20CA10CFD
:100B3800A00CFF3E031D982D230822042104200445
:100B4800031DA72DA82D732D2B08A3002A08A2008A
:100B58002908A1002808A0000800F601F70172087A
:100B680073040319B82DB92DEE2D0130F800C52DE9
:100B780001300310F20DF30DFF3E031DBD2D0130B2
:100B8800F807F31FC82DC92DBC2D01300310F60D31
:100B9800F70DFF3E031DCA2D73087502031DD62DE0
:100BA80072087402031CD92DDA2DE12D7208F402A3
:100BB8007308031CF503F502761401300310F30CD7
:100BC800F20CFF3E031DE22D0130F802031DED2D4E
:100BD800EE2DC92D7708F3007608F200080083127D
:100BE8000313981783160313181283120313181686
:100BF800831603131815831203133908BD003A0826
:100C0800BE003B08BF003C08C00004300310BD0D07
:100C1800BE0DBF0DC00DFF3E031D0A2E4008AF00DC
:100C28003F08AE003E08AD003D08AC000130B300FF
:100C38003130B2002D30B1000030B0000A128A11F4
:100C48005D230A128A11831203132C08FF3E8316B0
:100C58000313990098160800F801F901392E01309C
:100C6800F8070318F90A0030F90778087207F40042
:100C780074088400831300080319432E442E562E4B
:100C880078087307F400740884000008F5007808F1
:100C98007207F60076088400000875060319552EB9
:100CA800562E332E78087307F40074088400000861
:100CB800F50078087207F600760884000008F70047
:100CC80075087702F200F301031CF303080083128E
:100CD8000313200821040319722E732EA02E01304D
:100CE800F9007F2E01300310A00DA10DFF3E031D5A
:100CF800772E0130F907A11F822E832E762E210828
:100D08002302031D892E20082202031C8C2E8D2EFF
:100D1800932E2008A2022108031CA303A30201307A
:100D28000310A10CA00CFF3E031D942E0130F90204
:100D3800031D9F2EA02E832E2308A1002208A000A9
:100D48000800831203139415141194101410390811
:100D5800BD003A08BE003B08BF003C08C000023096
:100D68000310BD0DBE0DBF0DC00DFF3E031DB42EFB
:100D78004008AF003F08AE003E08AD003D08AC009B
:100D88000130B3003130B2002D30B1000030B00076
:100D98000A128A115D230A128A11831203132C087E
:100DA800FF3E831603139300871507168312031358
:100DB800941608000A128A1561260A128A110A1264
:100DC8008A1544260A128A11003083120313BC00C4
:100DD8000030BB002530BA008030B9000A128A11F1
:100DE800F3250A128A11003083120313BC00013064
:100DF800BB008630BA00A030B9000A128A11A526B5
:100E08000A128A110A128A1594260A128A110A12DB
:100E18008A15DA260A128A110A128A1508270A126E
:100E28008A110800143083120313510203181D2F6E
:100E38001E2F1F2F4B2F0A128A1518260A128A11E5
:100E480083120313500803192A2F2C2F01302D2F3A
:100E58000030D00004307A020318332F342F4B2F80
:100E68005008031D382F392F3E2F2030F80000304E
:100E7800F900422F5F30F8000030F9007A08C03ED0
:100E8800F60078080A128A15A5260A128A1108009F
:100E9800F9003F3079060319522F532F592F0A12A0
:100EA8008A151C260A128A117E2F0030831203131A
:100EB8004902323003194802031C632F642F7E2F26
:100EC8004F08031D682F692F7E2F0A128A151C26CA
:100ED8000A128A11FA0183120313CE01CD010A12F4
:100EE8008A11F9270A128A1100300A128A156C260B
:100EF8000A128A110800F20178080A128A15952741
:100F08000A128A119D2FF201F20A7708FF0076086B
:100F180084000A128A112B200A128A110A128A15D1
:100F280095270A128A110130F6070318F70A0030CC
:100F3800F707770883120313FF00760884000A1264
:100F48008A112B200A128A11003A031DAC2FAD2FEB
:100F5800872F0800F4000A128A1532260A128A110D
:100F6800D0300A128A1584260A128A1174080A12C5
:100F78008A1584260A128A110A128A1529260A1243
:100F88008A11D1300A128A1584260A128A11013070
:100F98000A128A15B5270A128A11F5000A128A154B
:100FA8003B260A128A11750808007608840000306A
:100FB8000A128A11AE270A128A1183138000760A50
:100FC800840001300A128A11AE270A128A1183138B
:100FD80080007608023E840002300A128A11AE2789
:100FE8000A128A11831380000800FF30831203134A
:080FF800D800FF30D900080009
:101C2800831203134C08080083120313D101080020
:101C380083120313C801C901080064008001840AE3
:101C48000406031900340406222E0A128A15772680
:101C58000A128A1583160313911408000A128A15AA
:101C680077260A128A1583160313111408000A121C
:101C78008A1577260A128A15831603131115080088
:101C8800FF30831603138600FF3083120313860088
:101C98000800F200831203130C1E532E542E4E2EEE
:101CA800720899000800FF34FF3404340134013409
:101CB800313431343134313400348316031388011C
:101CC800091189100A128A1120240A128A1508009B
:101CD800F8000A128A15B6260A128A15780883129D
:101CE8000313CC0008008316031314197C2E7D2ED1
:101CF800772E11081F39031D822E832E772E080098
:101D0800F2000A128A1577260A128A1572088312B7
:101D1800031393000A128A1577260A128A150800F7
:101D280000300A128A11AE270A128A15F6007F308F
:101D3800F605F30176080A128A1558270A128A1539
:101D48000800F700F20176080A128A1595270A1288
:101D58008A15F201F20A77080A128A1595270A12DB
:101D68008A150800F20101300A128A1595270A120D
:101D78008A150D30F700FB30F600F60BC12EF70B75
:101D8800C12EC62E08007E088A007F0882000A122B
:101D98008A15C7260A128A158000840A04087D0657
:101DA80003190034FF0A0319FE0ACB2E831203130A
:101DB8001F139F17831603131F13831203139F11F7
:101DC8001F129F12831603139F171F109F101F11B6
:101DD8009F11831203131F1408002A30F600803065
:101DE800F7008030F8000A128A117F270A128A1534
:101DF8003B30F6008030F700C030F8000A128A1134
:101E08007F270A128A150800831603130108C039B0
:101E1800073881003D308312031381000B118B16A4
:101E2800313090000B308F00DC308E000C108316A0
:101E380003130C140B178B170800F5007508F40032
:101E480003300310F40DFF3E031D252F83120313E7
:101E58001F08C73974049F001F151F19342F352F09
:101E6800312F1E08F300831603131E08F200080022
:101E78004B2F730884000A128A1135200A128A151A
:101E88000A128A154D260A128A150130F3077308BB
:101E980084000A128A1135200A128A15003A031D95
:101EA800562F572F3D2F0800F4000A128A153226A4
:101EB8000A128A15D0300A128A1584260A128A153F
:101EC80073080A128A1584260A128A1574080A12D7
:101ED8008A1584260A128A150A128A153B260A12BE
:101EE8008A15080083120313C1004230F6000A1253
:101EF8008A11D9270A128A154230F9000A128A1162
:101F0800C3230A128A158312031341080A128A117D
:101F18008F210A128A150A128A1184220A128A1536
:101F28000800F5007218992F9D2F831203130915C5
:101F3800A02F831203130911750888008914A6308D
:101F4800F300F30BA52F00008312031389101B3035
:101F5800F4009E30F300F30BAF2FF40BAF2F00000B
:101F68000800F2000A128A1577260A128A158316C3
:101F7800031391150A128A1577260A128A158312F5
:101F880003131308F30072030319CB2FCF2F831603
:101F980003139116D22F8316031391121116730887
:101FA80008000B1DD82FD92FE02F3D3083120313C3
:101FB80081000B110130D107831203130C1CE52F8C
:101FC800E62FF92F0B308F00DC308E000C10480AFA
:101FD800031DF32F490A0319F22FF32FF92F0130AC
:101FE800C8070318C90A0030C90771088A00700EAB
:081FF8008300FE0E7E0E0900BD
:02400E007A3FF7
:00000001FF
