:060000000A128A110C280F
:10000800FE00030EF0000A08F1000A168A152A2DD0
:100018000A128A110F2883160A128A11FF200A125F
:100028008A11B90083120A168A15CE220A128A1179
:10003800E6000A168A15CF220A128A11E7000A1664
:100048008A15D0220A128A11E8000A168A15D122C6
:100058000A128A11E9000A168A15D2220A128A118E
:10006800EA000A168A15D3220A128A11EB000A122C
:100078008A1500200A128A11FA000A128A1501202C
:100088000A128A11FB008313A0308400B2300A16CA
:100098008A15F3220A128A114630840066300A163D
:1000A8008A15F32283010A128A15132D5A087A0633
:1000B800031908005A08FA008030A3003E300A16D7
:1000C8008A152E230A128A11813083120313A30082
:1000D80020300A168A152E230A128A118312031356
:1000E8005A08A4002407223E840081300318013EE8
:1000F800FF000A128A1100210A128A11A5000A12A9
:100108008A1100210A128A11A6002508F60026087D
:10011800F7008230F8000A168A15C7250A128A11D4
:10012800C030A30020300A168A152E230A128A111D
:10013800C13083120313A30020300A168A152E2318
:100148000A128A110530831203135A020318CC28A5
:100158005A08A4002407023E223E84008130031876
:10016800013EFF000A128A1100210A128A11A50015
:100178000A128A1100210A128A11A6002508F6001F
:100188002608F700C230F8000A168A15C7250800A5
:10019800C830F6008530F700C230F8000A168A1514
:1001A800C7250800F7000A168A15AE220A128A1116
:1001B800D0300A168A1501240A128A1177080A16FD
:1001C8008A1501240A128A110A168A15B8220A12F7
:1001D8008A11D1300A168A1501240A128A110130AF
:1001E8000A168A1533240A128A11F8000A168A1583
:1001F800B322780808000134FF1B0A2983137F18EB
:1002080083170008840A0319FF0A08007F087F394A
:100218008A000408840A0319FF0A8200FF3486341E
:10022800253487343034873409348734DE348634CF
:10023800653486341C348734A8348534F8348534DE
:100248000834863418348634E834853438348634AF
:10025800D8348534533487344D3487343E34873426
:10026800413487344434873447348734033404347E
:100278000534063407343134313431343134003400
:100288000F341E343C3417343B343B345B34433432
:1002980050345D34203466346934723473347434C1
:1002A800203465346E3474347234793420346334D1
:1002B8006F346D3470346C34653474346534203480
:1002C800E2348034943420346134773461346934CE
:1002D800743469346E3467342034723465342D34A0
:1002E80065346E347434723479340D340A3400341D
:1002F8005B344C344F34473449344E345D34203405
:100308004E346F3420347334613476346534643455
:10031800203470346134733473342034E2348034DC
:1003280094342034773472346934743469346E34D4
:1003380067342034643465346634613475346C341D
:1003480074340D340A3400345B3453344534543433
:100358005F34543449344D3445345D3420344434A6
:1003680049345334433441345234443445344434A6
:100378002034E234803494342034523454344334B6
:10038800203475346E346334683461346E346734C1
:10039800653464340D340A3400345B344C344F34DF
:1003A800473449344E345D34203450346134733426
:1003B800733477346F347234643420346C346F346B
:1003C80061346434653464342034663472346F3490
:1003D8006D34203445344534503452344F344D3420
:1003E8000D340A3400345B34433450345D342034E3
:1003F800543449344D3445344F345534543420340E
:10040800E23480349434203472346534743475346E
:1004180072346E3469346E346734203474346F3413
:1004280020344D3445344E3455340D340A340034B8
:100438005B344D3445344E3455345D3420344934BE
:100448004E344134433454344934563449345434A2
:1004580059342034E234803494342034613475348F
:1004680074346F342D346C346F3467346F347534AE
:1004780074340D340A3400345B34433450345D34FE
:1004880020344D3441345434433448342034E23435
:100498008034943420347734723469347434693451
:1004A8006E346734203474346F3420344534453422
:1004B800503452344F344D340D340A3400343D3402
:1004C8003D343D34203443344134523420344234B2
:1004D8004C34413443344B34203442344F34583450
:1004E800203453345434413452345434453444342D
:1004F80020343D343D343D340D340A3400345B340B
:10050800433450345D3420344D34493453344D34FD
:1005180041345434433448342034E23480349434FD
:100528002034723465347334653474347434693403
:100538006E3467340D340A3400345B345334453434
:1005480054345F34543449344D3445345D342034A4
:1005580053344134563445344434203474346F347D
:1005680020344434533431343334303437340D3454
:100578000A3400345B34433450345D342034453419
:100588004534503452344F344D3420347734723437
:10059800693474346534203463346F346D347034A2
:1005A8006C346534743465340D340A3400345B3487
:1005B80044344F3457344E344C344F34413444343B
:1005C8005D3420344E346F3420346C346F346734E7
:1005D80073342034733474346F347234653464344F
:1005E8002E340A3400343D343D343D342034433411
:1005F80041345234203442344C34413443344B3443
:10060800203442344F34583420344C344F34473437
:1006180020343D343D343D340A3400343D343D34D7
:100628003D343D343D343D343D343D343D343D343A
:100638003D343D343D343D343D343D343D343D342A
:100648003D343D343D343D343D343D343D340A344D
:1006580000345B344C344F34473449344E345D34C1
:1006680020344C344F3443344B344F3455345434A1
:1006780020344534583450344934523445344434A1
:100688000D340A3400345B344C344F344734493425
:100698004E345D3420344134433443344534533488
:1006A800533420344734523441344E34543445346E
:1006B80044340D340A340034233423342034483489
:1006C80048343A344D344D343A3453345334203466
:1006D800473445344134523420345334503444344C
:1006E8000A3400345B344C344F34473449344E3484
:1006F8005D3420344C344F34473447344534443423
:1007080020344F34553454340D340A3400345B34B7
:100718004C344F34473449344E345D3420344334F8
:1007280041344E34433445344C344C3445344434E9
:100738000D340A3400345B34533454344134543463
:1007480045345D34203444344134533448344234DD
:100758004F344134523444340D340A3400345B3459
:100768004C344F3447345D342034453445345034A8
:1007780052344F344D3420344634413449344C34A7
:100788000D340A3400345B3444344134533448342F
:100798005D342034493447344E3449345434493470
:1007A8004F344E3420344F344E340A3400345B34E2
:1007B8004C344F3447345D34203445344534503458
:1007C80052344F344D3420344F344B340D340A34C2
:1007D80000345B344C344F34473449344E345D3440
:1007E800203443344F34523452344534433454342F
:1007F8000D340A3400345B344C344F3447344934B4
:100808004E345D342034543449344D3445344F34F7
:10081800553454340D340A340034203465346E347D
:100828007434723469346534733420342034203499
:1008380020342034203420342034003453345734C6
:1008480031343A3420344234613463346B342034E4
:1008580020342034203420342034203400344C34E4
:100868004F3447345334203443344C3445344134C2
:100878005234453444342034203420342034003475
:100888004E346F3420344C346F346734733420342E
:1008980046346F3475346E34643420342034203454
:1008A8000034533465346E34643469346E346734D8
:1008B80020344C346F34673473342E342E342E3451
:1008C80020340034203420345334573431343A340B
:1008D8004234613463346B3420342034203420347F
:1008E8002034203400345334653474342034543480
:1008F80069346D34653420342034533457343234F9
:100908003A344F344B3400345B34433450345D3420
:100918002034433441344E34433445344C344C341D
:10092800453444340D340A3400344D344934533496
:100938004D34413454344334483421342034203441
:1009480020342034203420342034003453346134AB
:10095800763469346E3467342E342E342E34203491
:1009680020342034203420342034203400344E34D1
:1009780065347734203450346134733473343A3402
:1009880020342034203420342034203420340034DF
:1009980054347234793420344134673461346934DE
:1009A8006E34203420342034203420342034203451
:1009B80000345034413453345334203443344834AD
:1009C80041344E34473445344434203420342034C0
:1009D80020340034523465342D3465346E34743424
:1009E80065347234203450346134733473343A3497
:1009F800203420340034203420344C346F346334B1
:100A08006B34653464342134203420342034203469
:100A18002034203420340034503461347334733437
:100A280057346F34723464343A34203420342034E8
:100A38002034203420342034003420347434723488
:100A480069346534733420346C34653466347434F2
:100A580020342034203420342034003444346534A5
:100A6800763469346334653420344C346F346334F9
:100A78006B346534643420342034203400344334F7
:100A88006F346E34743461346334743420344134D4
:100A980064346D3469346E342034203420340034A6
:100AA80049346E34763461346C34693464342034B7
:100AB80045346E347434723479342034203420341C
:100AC800003443346F3472347234653463347434AC
:100AD800203445346E3474347234793420342034FC
:100AE80020340034443465347634693463346534EE
:100AF80020344C346F3463346B34653464342134BB
:100B0800203420340034413463346334653473341E
:100B1800733420344734723461346E347434653439
:100B280064342034203400345B344C344F3447343C
:100B380053345D34203443344C34453441345234D6
:100B4800453444340A3400344334483441344E3450
:100B5800473445345F345034413453345334573474
:100B68004F345234443400345B344D3445344E34BD
:100B780055345D3420344C344F3447344F34553475
:100B880054340D340A3400342034203420342034D2
:100B980020342034203420342034203420342034AD
:100BA80020342034203400344C344F3447344F340C
:100BB8005534543420342034203420342034203424
:100BC8002034203420340034533445345434203411
:100BD800543449344D3445342034203420342034BE
:100BE80020342034203400345634493445345734C2
:100BF80020344C344F3447342034203420342034CB
:100C0800203420342034003443344C3445344134C7
:100C1800523420344C344F34473420342034203478
:100C2800203420342034003444344F3457344E3484
:100C38004C344F344134443420344C344F344734EA
:100C480020342034203400345B344D3445344E3461
:100C580055345D342034533445344C3445344334AE
:100C680054343A34203400344334483441344E3414
:100C78004734453420345034413453345334573492
:100C88004F345234443400345B344C344F3447349A
:100C980049344E345D3420346434693467346934FB
:100CA8007434203400345B344C344F344734533478
:100CB8005D34203465346D347034743479340A34D6
:100CC800003444344F3457344E344C344F34413468
:100CD80044345F344C344F344734533400345B3439
:100CE8004D3445344E3455345D3420344234413427
:100CF80043344B340D340A3400345B344C344F34B1
:100D0800473449344E345D34203446344134493410
:100D18004C34203400345B34443441345334483444
:100D28005D342034433452344134533448340A3423
:100D380000345B3444344134533448345D34203413
:100D480047344534413452343A34203400345B3427
:100D58004C344F34473453345D34203442344134B6
:100D680043344B340A3400345B344C344F34473406
:100D780053345D3420344E344534583454340A34B2
:100D880000345B344C344F34473453345D342034AE
:100D980050345234453456340A3400345B344334C6
:100DA80050345D34203464346934673469347434BD
:100DB8002034003443344C344534413452345F34A5
:100DC8004C344F344734533400344C344F34473464
:100DD80047344534443420344F3455345434003483
:100DE80052346534743472347934203469346E344E
:100DF8003A3420340034443441345334483442348F
:100E08004F34413452344434003456344934453430
:100E180057345F344C344F344734533400345B34E4
:100E2800533454344134543445345D34203400341C
:100E38005334453454345F34543449344D34453490
:100E480000344C344F34473449344E3400344C3435
:100E58004F344734203400344D3445344E345534FF
:100E680000343F343F340034433452340034433484
:100E780020340034473431340034473432340034B9
:100E8800473433340034473434340034533444342E
:100E9800003447344E3400344F344E340034473431
:100EA800523400344534563400342F340034540856
:100EB800031D8D2F0A168A155B230A128A117730B3
:100EC800F6008430F7008030F8000A168A15C72526
:100ED8000A128A11C230A3003A300A168A152E2344
:100EE8000A128A11C53083120313A3003A300A1676
:100EF8008A152E230A128A116630F6008430F7000C
:100F0800C830F8000A168A15C7250A128A11013056
:100F1800D400A50103302502031808000330F200AD
:100F280025080A168A154C230A128A11A4002508D6
:100F38005506031DB22F6608031DB22F2408C03EB4
:100F4800A30020300A168A152E230A128A1183124A
:100F580003132408C13EA3002030D92F2408C03E23
:100F6800A3000A30F20025084D3E840083130008D0
:100F78000A168A15A8240A128A11303E0A168A15FA
:100F88002E230A128A11831203132408C13EA300D8
:100F98000A30F60025084D3E8400831300080A161F
:100FA8008A15C7240A128A11303E0A168A152E237A
:100FB8000A128A11013083120313A5078E2FF90034
:100FC8000A30F60079080A168A15C7240A128A1107
:100FD800A3000A30F20079080A168A15A8240A1212
:100FE8008A11A40003300310A40DFF3E031DF72F40
:100FF8000310240D23040800FF34013483121F1347
:101008009F1783161F1383129F111F129F12831697
:101018009F171F109F101F119F1183121F14080084
:10102800A8000A168A15D4220A128A15AD000A16D3
:101038008A15DB220A128A15AE000A302D0203181F
:10104800AD010B302E02031C2B280A30AE000A30EB
:10105800F2000030F3002D08A400A5012508A70020
:101068002E082402A600031CA70326080A3EF40043
:1010780027080318013E003EF5000A168A152126A6
:101088000A128A157208AB000A30F2000030F30029
:101098002B082807F400F501F50D0A168A152126F4
:1010A8000A128A157208AC002C08A400A5012408AD
:1010B800F2002508F3000B30F4000030F5000A16A2
:1010C8008A15E6240A128A157208023EA9007308D6
:1010D8000318013E003EAA00AF012F082307A40011
:1010E800240884002F082907F7002A0803182A0A69
:1010F800F8000A168A117B200A128A1583138000C9
:101108000130AF070B302F02031C712823080B3E58
:101118008400800108008312AD0019306302031CAB
:10112800A1280A168A15A6220A128A156608031D1E
:101138009F280130A0280030E6002D080319080078
:101148002D03031DBA28A830A0008130A1000A167B
:101158008A15E5260A128A150A168A1516230A120E
:101168008A1502300A168A158627080002302D06CD
:10117800031D0F29A5014F080A128A11E3270A1235
:101188008A150A168A156B240A128A158312A50174
:10119800A50A4E080A128A11E3270A128A150A16A6
:1011A8008A156B240A128A1502308312A5004D088D
:1011B8000A128A11E3270A128A150A168A156B245D
:1011C8000A128A1583124D080A128A11E3270A1295
:1011D8008A15C6004E080A128A11E3270A128A15D0
:1011E800C7004F080A128A11E3270A128A15C80095
:1011F800A130A0008230A1000A168A15E5260A123D
:101208008A150A168A1516230A128A1502300A1632
:101218008A158627080006302D06031D5529033038
:10122800F2000030F3005508013EF40000300318C6
:101238000130F5000A168A1521260A128A15720845
:10124800D5004F295508473E840081300318013ED8
:10125800FF000A128A1100210A128A15A7005508F0
:101268004D3E840083130008A800270828020318AD
:10127800482955084D3E84000008013EA900003069
:1012880003180130AA004A29A901AA0155084D3EB0
:101298008400290880000130E6000A168A15A62273
:1012A800080004302D060319262905302D06031DD4
:1012B800080055084D3E84008313000803196E2961
:1012C80055084D3E84000008FF3EAB00FF30031870
:1012D80000307F295508473E840081300318013EBD
:1012E800FF000A128A1100210A128A15A700A80114
:1012F8002708AB002808AC0055084D3E84002B0891
:1013080083134E298312AE000430620603190800C5
:10131800033062060319080014306302031CA6296F
:101328000A168A15A6220A128A155F08031D9E2925
:1013380001309F290030DF0002305D020318A62922
:101348000130DD0702306206031DF0290A30F20081
:101358000030F3005108F5005008F4000A168A1509
:101368004C270A128A157208AC006108423E8400B4
:1013780081300318013EFF000A128A1100210A1267
:101388008A15AD002D082C02031CCD29A801A9013E
:10139800D5292C082D02A600A7012608A800270891
:1013A800A9002808DC005C08031D08002D30A000F7
:1013B8008330A1000A168A15E5260A128A15E20169
:1013C800DE010230DD000A168A15A6220A128A15E5
:1013D8000A168A15BD2208002E08031D172A003098
:1013E8005102323003195002031C172AFF30A000A3
:1013F8008330A1000A168A15E5260A128A150A16EC
:101408008A15BD220A128A150A168A157D230A1220
:101418008A150A168A1504230A128A1500300A1634
:101428008A158627080002305D02031C0800043074
:10143800600203185E2A04302E060319272A053095
:101448002E06031D5E2A04302E0603192D2A31307C
:101458002E2A3030AA000030AB006008A03E84007D
:101468002A08831380000130E0070A168A15A6228D
:101478000A128A150A168A15BD220A128A1501301F
:10148800DF004830A0008630A1000A168A15E5263C
:101498000A128A156008303E0A168A15C2220A12F4
:1014A8008A15BB30A0008230A1000A168A15E526ED
:1014B8000A128A1504306006031D08000A168A15E8
:1014C8004F240A128A15720873040319752AED301D
:1014D800A0008330A1000A168A15E5260330E20031
:1014E80008000130E1078130A0008630A1000A160B
:1014F8008A15E5260A128A156108303E0A168A15E9
:10150800C2220A128A155930A0008730A1000A1693
:101518008A15E5260A128A1535300A168A15C22256
:101528000A128A15BB30A0008230A1000A168A155B
:10153800E5260130E20008000A168A15D3230A12AC
:101548008A15C2004208031DD32A83162D08031DDD
:1015580008000A168A155B230A128A154430F60019
:101568008430F7008030F8000A168A15C7250A1259
:101578008A152230F6008430F700C030F8000A16C9
:101588008A15C7250A128A155730A0008630A1008F
:101598000A168A15E52601308316AD000800831661
:1015A800AD01390803190800B90134308312A300CA
:1015B80052080A128A1514200A128A153B080A16BC
:1015C8008A1139200A128A157208C0007308C100EE
:1015D8002B30F6008730F7008030F8000A168A159D
:1015E800C7250A128A158430A4005208013E0A163B
:1015F8008A1507250A128A15863083120313A30059
:101608002F300A168A152E230A128A15873083125C
:101618000313A40042080A168A1507250A128A1518
:10162800D030F6008530F7008930F8000A168A15A0
:10163800C7250A128A15C030A30034080A168A156D
:101648002E230A128A15C13083120313A30035080A
:101658000A168A152E230A128A15C230831203131A
:10166800A3003A300A168A152E230A128A15C330A7
:1016780083120313A30036080A168A152E230A12AA
:101688008A15C43083120313A30037080A168A1573
:101698002E230A128A15C53083120313A3003A3089
:1016A8000A168A152E230A128A15C63083120313C6
:1016B800A30038080A168A152E230A128A15C7307D
:1016C80083120313A30039080A168A152E230A1257
:1016D8008A15C83083120313A30020300A168A150E
:1016E8002E230A128A15C93083120313A300410856
:1016F800FF00400884000A128A1100210A128A1584
:101708000A168A152E230A128A15CA308312031361
:10171800A3000130B00030084007B2004108B10012
:101728000318B10AB01BB1033108B3003308FF0036
:10173800320884000A128A1100210A128A150A1630
:101748008A152E230A128A15CB3083120313A3009D
:1017580020300A168A152E230A128A15CC308312D5
:101768000313A3003C080A168A152E230A128A15A9
:10177800CD3083120313A3003D080A168A152E23C1
:101788000A128A15CE3083120313A3003E080A16E4
:101798008A152E230A128A15CF3083120313A30049
:1017A80020300A168A152E2308000A168A15D32314
:1017B8000A128A15C2000A168A155B230A128A15AC
:1017C800831203134208031DF82B4430F6008430BB
:1017D800F7008030F8000A168A15C7250A128A15FC
:1017E800DB30A0008230F92C5530F6008430F70049
:1017F8008030F8000A168A15C7250A128A15C030E3
:10180800A40042080A168A1507250A128A151130FB
:10181800F6008430F700C230F8000A168A15C7258A
:101828000A128A15F730A0008230A1000A168A151C
:10183800E5260A128A156030A0008330A1000A1636
:101848008A15E5260A128A15C301420843020318BD
:10185800F62C3430A30043080A128A1514200A1201
:101868008A153B080A168A1139200A128A15720845
:10187800C0007308C1000A30F2000030F3004308CA
:10188800013EF400003003180130F5000A168A15ED
:101898004C270A128A157208303E0A168A15C22287
:1018A8000A128A150A30F2000030F3004308013E9C
:1018B800F400003003180130F5000A168A152126B5
:1018C8000A128A157208303E0A168A15C2220A12AE
:1018D8008A1520300A168A15C2220A128A15340877
:1018E8000A168A15C2220A128A1535080A168A1596
:1018F800C2220A128A153A300A168A15C2220A1218
:101908008A1536080A168A15C2220A128A15370855
:101918000A168A15C2220A128A153A300A168A1538
:10192800C2220A128A1538080A168A15C2220A1211
:101938008A1539080A168A15C2220A128A15203011
:101948000A168A15C2220A128A154108FF004008A1
:1019580084000A128A1100210A128A150A168A15A9
:10196800C2220A128A150130B00030084007B200BE
:101978004108B1000318B10AB01BB1033108B30024
:101988003308FF00320884000A128A1100210A1263
:101998008A150A168A15C2220A128A1520300A16D2
:1019A8008A15C2220A128A153C080A168A15C2220A
:1019B8000A128A153D080A168A15C2220A128A15C1
:1019C8003E080A168A15C2220A128A15BB30A000E0
:1019D8008230A1000A168A15E5260A128A150130F6
:1019E800C307292C1230A0008330A1000A168A15DB
:1019F800E5260A128A15273083120313B2000D3028
:101A0800B1002530B000B00B072DB10B072DB20B7C
:101A1800072D0E2D02300A168A15862708000A1689
:101A28008A1101200A128A156330A0008230A100B1
:101A38000A168A15E5260A128A159F30A0008330F7
:101A4800A1000A168A15E5260A128A1500300A1618
:101A58008A1518270A128A150A168A154E250A1297
:101A68008A158316B800AA2D043083163806031D7C
:101A78005D2D0A168A15AB220A128A15003A031937
:101A8800512D0A168A1516230A128A1502300A16CB
:101A98008A1586270A128A150B2E0A168A157D239F
:101AA8000A128A1501300A168A1586270A128A151B
:101AB8000B2E38080A168A11F6220A128A150B2EDE
:101AC80083163803031D832D8B308312A0008330C7
:101AD800A1000A168A15E5260A128A150A168A1519
:101AE8007D230A128A150A168A1504230A128A15F2
:101AF80000300A168A1586270A128A150B2E38080E
:101B08000A128A1586210A128A150B2E831638089E
:101B18000A168A113B250A128A150B2E83163808D5
:101B28000A168A1188220A128A150B2E831638087B
:101B38000A168A110F270A128A150B2E83163808DF
:101B48000A128A158F200A128A150B2E0A168A1570
:101B5800A8220A128A15C400C5014508003A0319CB
:101B6800B62D0B2E4408003A0319382D013A0319F3
:101B7800642D033A03198A2D013A0319922D073A65
:101B880003190B2E013A03190B2E033A0319A22D40
:101B9800013A03199A2D0B2E0A168A116C240A127F
:101BA8008A15312E0A128A1558260A128A15312EDC
:101BB8000A128A115A200A128A15312E0A128A1517
:101BC800A0220A128A15312E0A168A111E260A1216
:101BD8008A15312E0A128A115B270A128A15312EAC
:101BE8000A168A159C250A128A150A168A151623BA
:101BF8000A128A1502300A168A1586270A128A15C9
:101C0800312E0A128A15D9230A128A15312E0A167C
:101C18008A15A8220A128A15C400C5014508003A87
:101C28000319172E312E4408003A0319D02D013A12
:101C38000319D62D033A0319DC2D013A0319E22DB5
:101C4800073A0319F42D013A0319052E033A03192B
:101C5800EE2D013A0319E82D312E831203134C0897
:101C680003192A2DCC01B230F2000030F3000A1615
:101C78008A11BF200A128A15B230BD000030BE009A
:101C88000A168A1169210A128A15003A0319522E76
:101C9800DB3083120313A0008330242DB33083126A
:101CA8000313A0008330242D04306206031D712E17
:101CB8003230F6008530F7008030F8000A168A15B1
:101CC800C7250A128A154330F6008530F700C03060
:101CD800F8000A168A15C725080003306206031D96
:101CE800C12E0A168A155B230A128A156530F6007A
:101CF8008530F7008030F8000A168A15C7250A12C1
:101D08008A158730F6008530F700C030F8000A16CB
:101D18008A15C7250A128A151A3083120313A800D8
:101D28005E30A7006D30A600A60B982EA70B982E44
:101D3800A80B982E9F2E473083120313A0008330E0
:101D4800A1000A168A15E5260A128A150130DB0059
:101D5800433084008130FF000A128A1100210A12E0
:101D68008A15DC00E1010A168A157D230A128A15F4
:101D780002300A168A15862708006203031D362FCB
:101D88006108053CA9000A168A155B230A128A1500
:101D98005430F6008530F7008030F8000A168A15AE
:101DA800C7250A128A1505306102031CF92E763000
:101DB800F6008530F700C030F8000A168A15C725E6
:101DC8000A128A15333083120313A800BB30A70008
:101DD800DF30A600A60BEE2EA70BEE2EA80BEE2EDC
:101DE800043083120313E200322FC030A300290805
:101DF800303E0A168A152E230A128A152130F6005B
:101E08008530F700C130F8000A168A15C7250A126E
:101E18008A15273083120313A8000D30A700253038
:101E2800A600A60B152FA70B152FA80B152F1C2FD7
:101E38000A168A15BD220A128A156108423E8400D4
:101E480081300318013EFF000A128A1100210A128C
:101E58008A15DC000230E200DE01E0010A168A156C
:101E68005B23080002306206031DB12F5E08031DC4
:101E7800512F0A168A155B230A128A15FF30F600BD
:101E88008430F7008030F8000A168A15C7250A1230
:101E98008A150130DE00FF30E8005C086806031987
:101EA80008005C08E800F430F6008630F700C0301F
:101EB800F8000A168A15C7250A128A15CA30A3001F
:101EC8006430F2005C080A168A15A8240A128A15DA
:101ED800303E0A168A152E230A128A15CB30831231
:101EE8000313A3000A30F6000A30F2005C080A1651
:101EF8008A15A8240A128A150A168A15C7240A12EE
:101F08008A15303E0A168A152E230A128A15CC30F5
:101F180083120313A3000A30F6005C080A168A1518
:101F2800C7240A128A15303E0A168A152E230A1269
:101F38008A15CD3083120313A30073300A168A154D
:101F48002E230A128A15D530F6008530F700CE30D8
:101F5800F8000A168A15C72508005E08031DD82F41
:101F68000A168A155B230A128A151030F600853086
:101F7800F7008030F8000A168A15C7250A128A1554
:101F8800AC012C08C03EA30020300A168A152E2367
:101F98000A128A15013083120313AC0704302C028D
:101FA800031CC52F0130DE00AC0160082C020318A9
:101FB800EB2F2C08C03EA3002A300A168A152E23C0
:101FC8000A128A15013083120313AC07D92F043083
:101FD8006002031808005F08031DF42F2030F52F56
:101FE8005F30AA000030AB006008C03EA3002A089A
:081FF8000A168A152E230800C9
:102002000A168A15E3220A168A110A168A15EB2283
:102012000A168A110030BC000030BB002530BA001D
:102022008030B9000A168A15B3260A168A110030C2
:102032008312BC000130BB008630BA00A030B90068
:102042000A168A1582260A168A110A168A153D234D
:102052000A168A110A128A1502200A168A110A160B
:102062008A15BD230A168A110A168A111D22080032
:10207200F40063285330F2008730F30008004D303B
:10208200F2008730F30008003E30F2008730F300A0
:1020920008004130F2008730F30008004430F200BB
:1020A2008730F30008004730F2008730F300080061
:1020B2003830F2008730F30008003530F200873004
:1020C200F30008007408303A03193B28013A031957
:1020D2004028033A03194528013A03194A28073AC6
:1020E20003194F28013A03195428763A031959283B
:1020F2005E2808007808F3007708F200A030F400A8
:102102000A168A151F230A168A11A1007808F300FD
:102112007708F200A130F4000A168A151F230A1666
:102122008A11A2000A168A15AE220A168A11831291
:1021320021080A168A1501240A168A1177080A1636
:102142008A1501240A168A110A168A15B8220A1655
:102152008A11831222080A168A1501240A168A1184
:1021620001300A168A1533240A168A118312A00036
:102172000A168A15B3228312200808007208840006
:102182008317731C8313460880007208013EF40013
:1021920073080318013E003EF5007408840083179B
:1021A200751C8313470880007208023EF40073080E
:1021B2000318013E003EF500740884008317751C65
:1021C2008313480880007208033EF4007308031862
:1021D200013E003EF500740884008317751C8313CA
:1021E2004A0880007208043EF40073080318013E96
:1021F200003EF500740884008317751C8313490898
:1022020080007208053EF40073080318013E003E88
:10221200F500740884008317751C83134B08800033
:102222000800C330F700CD30F600F60B1629F70B85
:102232001629F20133300A168A1589240A168A11E0
:102242001B30F7009E30F600F60B2529F70B2529E7
:102252000000F20133300A168A1589240A168A11FF
:10226200A630F600F60B33290000F20133300A16CD
:102272008A1589240A168A113E293F290000F20193
:1022820038300A168A1589240A168A11A630F600F1
:10229200F60B49290000F20101300A168A15892439
:1022A2000A168A110430F7003D30F600F60B572962
:1022B200F70B57295C29F2010C300A168A1589247A
:1022C2000A168A11A630F600F60B652900000800EE
:1022D2000A168A15D4220A168A11C0000A168A150D
:1022E200DB220A168A11BF000A3040020318C0011D
:1022F2003D08A6003E08A70040080A168A11AE2330
:102302000A168A11003A031D8829003008000A3093
:10231200F2000030F300831203134008013EF40080
:10232200003003180130F5000A168A1521260A1614
:102332008A117208C0000A303F020318A229013034
:10234200BF070030A000A1004008A2000A168A15AB
:1023520051260A168A11003A03198629013083127E
:102362000313A0000030A1003F08A2000A168A153C
:1023720051260A168A11003A0319862901300800EB
:102382000030B7000030B6000030B5000030B400B5
:102392002F082E042D042C040319142A0130B8002E
:1023A200AF1BDF290130F7000310AC0DAD0DAE0DF0
:1023B200AF0DF70BD5290130B807D1290130F7004D
:1023C2000310B40DB50DB60DB70DF70BE1292F08AB
:1023D2003302031DF6292E083202031DF6292D08A9
:1023E2003102031DF6292C083002031C072A2C088F
:1023F200B0022D08031C2D0FB1022E08031C2E0F54
:10240200B2022F08031C2F0FB30234140130031041
:10241200AF0CAE0CAD0CAC0CFF3E031D082A013014
:10242200B802031DDF293708AF003608AE003508B1
:10243200AD003408AC00080001308312A400A501ED
:102442002508A93E84002508F03EF7000030031855
:102452000130F8000A168A117B200A168A118313AA
:1024620080002508A93E8400000A031DA401013052
:10247200A50704302502031C212A24080319802AF7
:102482007C30A0008130A1000A168A15E5260A16C2
:102492008A11A50125083F3E840081300318013EC0
:1024A200FF000A128A1100210A168A11FF0025086C
:1024B200A93E84007F08831380002508F03EA00017
:1024C200003003180130A10025083F3E840081300E
:1024D2000318013EFF000A128A1100210A168A110E
:1024E200A2000A168A1551260A168A110130831291
:1024F2000313A50704302502031808004B2AD13024
:10250200A0008130A1000A168A15E5260800831270
:10251200AB000A168A15D3230A168A11AA002A08C2
:10252200031DA92A2B03031D0800AB30A00086302F
:10253200A1000A168A15E5260A168A110A168A15B4
:10254200C8220A168A1102300A168A15862708003E
:1025520002302B06031DCB2A2A08FF3EA800FF30BB
:1025620003180030A9005208FF002908031DBB2AE6
:1025720028087F020318CB2A0130D20701308316C4
:10258200B900B8308312A0008630A1000A168A155D
:10259200E526080003302B06031DE02A5208031922
:1025A200E02A0130D20201308316B900C53083120D
:1025B200A0008630A1000A168A15E52608002B0322
:1025C200031D0800AB30A0008630A1000A168A1550
:1025D200E5260A168A110A168A15C8220A168A11CF
:1025E20002300A168A15862708008312BD000030C1
:1025F2000A128A11D6200A168A118312C8000130E3
:102602000A128A11D6200A168A118312C7000230D2
:102612000A128A11D6200A168A118312C6000030C5
:10262200AF000030AE000330AD00FF30AC00003030
:102632000A168A15A7230A168A1172088312B9008C
:102642007308BA00BB01BC013C08A3003B08A2000E
:102652003A08A1003908A0000030A7000030A60007
:102662000030A5006430A4000A168A15C1270A1694
:102672008A112308B3002208B2002108B100200801
:10268200B0000A168A11C1210A168A112C08CA0042
:10269200CB18692B3D03031D532B0330CB040130B0
:1026A200CC00692B02303D06031D5F2B0530490229
:1026B20003185F2B0130C9074B14502B03303D0622
:1026C200031D692B49080319692B0130C9025D2BCF
:1026D200CB18E518702B8F30A0008630A52B490847
:1026E200640603199F2B9D30A0008630A1000A16B4
:1026F2008A15E5260A168A114908B90039072E3EBD
:10270200840081300318013EFF000A128A11002161
:102712000A168A11BA000A128A1100210A168A11AF
:10272200BB003A08A0003B08A1000A168A15E5265C
:102732000A168A11BC30A0008230A52B4B186518EE
:10274200A92BC730A0008330A1000A168A15E526FE
:102752004B08E5004908E4000800AC002C08A8007A
:10276200A9012808F2002908F3000B30F400003018
:10277200F5000A168A15E6240A168A117208023E24
:10278200B80073080318013E003EB9002D30F20074
:102792002E30F300260884008317271C83130008B9
:1027A2000A168A15EA230A168A112F30F2003030EF
:1027B200F3002608013EA80027080318013E003E48
:1027C200A900280884008317291C831300080A160D
:1027D2008A15EA230A168A113130F2003230F300E8
:1027E2002608023EA80027080318013E003EA90061
:1027F200280884008317291C831300080A168A15E7
:10280200EA230A168A114730B3002608053EA800BB
:1028120027080318013E003EA900280884008317F8
:10282200291C831380182B2C2608043EA800270895
:102832000318013E003EA900280884008317291CC2
:10284200831300080739303EAA00AB012A08BA00F8
:102852002B082E2C4330BA000030BB003A08B400DB
:102862003530A3003630A4003730A5002608033ED9
:10287200A80027080318013E003EA900280884008A
:102882008317291C831300080A168A15F3250A16D2
:102892008A11BC013C083807A00039080318390A1C
:1028A200A1003C082D3E840083130008A2000A16F2
:1028B2008A1551260A168A11003A031D622C00302D
:1028C2000800013083120313BC070B303C02031CC7
:1028D2004B2C013008002030F6008730F7008030A2
:1028E200F8000A168A15C7250A168A114608A30097
:1028F20004300310A30CFF3E031D7A2C2308033976
:10290200303EA60046080F39303EA7003A30A800F4
:102912004708A30004300310A30CFF3E031D8C2CB8
:1029220023080739303EA90047080F39303EAA0074
:102932003A30AB004808A30004300310A30CFF3E5A
:10294200031D9E2C23080739303EAC0048080F397E
:10295200303EAD00AE012630F6000030F700C03048
:10296200F8000A168A15C7250A168A115630F6008B
:102972008730F7008A30F8000A168A15C7250A162A
:102982008A1149086A06031DCA2C4B0869060319F5
:10299200FA2C4908EA004B08E900CB1CD42C3B3046
:1029A200F6008730F22C4B1CEF2C4908A3002307BA
:1029B2002E3E840081300318013EFF000A128A1164
:1029C20000210A168A11A4000A128A1100210A168D
:1029D2008A11A5002408F6002508F22C5030F600D2
:1029E2008730F700CA30F8000A168A15C7250A167A
:1029F2008A114A30F6008730F7008D30F8000A1647
:102A02008A15C7250A168A114A086B060319080097
:102A12004A08EB006430F2004A080A168A15A82414
:102A22000A168A11303EAF000A30F6000A30F20070
:102A32004A080A168A15A8240A168A110A168A153D
:102A4200C7240A168A11303EB0000A30F6004A083E
:102A52000A168A15C7240A168A11303EB100B2013D
:102A62002F30F6000030F700CD30F8000A168A1534
:102A7200C72508008312A90029080319452D0A1643
:102A82008A15BD220A168A11013051022C3003190F
:102A92005002031C692D1C30A0008230A1000A16CE
:102AA2008A15E5260A168A110A168A150D230A16B0
:102AB2008A110A168A1504230A168A110A168A1519
:102AC20016230A168A1100300A168A15862708006C
:102AD20002302906031D742D05305A020318742D85
:102AE2000130DA07080003302906031D7E2D5A083B
:102AF20003197E2D0130DA02080004302906031D75
:102B0200062E05305A06031DC12DB830A0008530AF
:102B1200A1000A168A15E5260A168A110A168A15CE
:102B22000D230A168A110A168A1516230A168A1105
:102B32000A168A155B230A168A11E930F6008630D6
:102B4200F7008030F8000A168A15C7250A168A117E
:102B5200333083120313A800BB30A700DF30A60076
:102B6200A60BB12DA70BB12DA80BB12D0A168A15F4
:102B720004230A168A1100300A168A1586270800CD
:102B82002830A0008630A1000A168A15E5260A160A
:102B92008A115A08A6002607223E840081300318B3
:102BA200013EFF000A128A1100210A168A11A700AB
:102BB2000A128A1100210A168A11A8002708A00009
:102BC2002808A1000A168A15E5260A168A11BB30C2
:102BD200A0008230A1000A168A15E5260A168A117B
:102BE2005A083A3E840081300318013EFF000A125F
:102BF2008A1100210A168A110A168A1586270A16D0
:102C02008A110A168A15162308002903031D0800D3
:102C12007330A0008630A1000A168A15E5260A162E
:102C22008A1100300A168A1586270A168A110A1690
:102C32008A1504230A168A11022E02305906031D30
:102C4200812E0A168A155B230A168A11DD30F600D8
:102C52008430F7008030F8000A168A15C7250A1654
:102C62008A11AA30F6008430F700C030F8000A1644
:102C72008A15C7250A168A11AD012D08F03EA0005B
:102C8200003003180130A1002D08AE3E84008313EA
:102C92000008A2000A168A1551260A168A11013066
:102CA20083120313AD0704302D02031C3E2EAE30F7
:102CB200F2000A168A1592230A168A11BE30A00063
:102CC2008230A1000A168A15E5260A168A112730D3
:102CD20083120313A8000D30A7002530A600A60B0F
:102CE200702EA70B702EA80B702E772E0A168A153F
:102CF20016230A168A1102300A168A158627080038
:102D020003305906031DB32E0A168A155B230A16D1
:102D12008A119930F6008430F7008030F8000A16E4
:102D22008A15C7250A168A11CC30F6008430F700BE
:102D3200C030F8000A168A15C7250A168A112730EC
:102D420083120313A8000D30A7002530A600A60B9E
:102D5200A82EA70BA82EA80BA82EAF2E0A168A15EE
:102D62006C2308005708031DE72E0A168A155B23F9
:102D72000A168A118312031359080319C42EEE305E
:102D8200A9008430C72EBB30A9008430AA002908CC
:102D9200F6002A08F7008030F8000A168A15C725BF
:102DA2000A168A11AD012D08C03EA30020300A1672
:102DB2008A152E230A168A11013083120313AD07D6
:102DC20004302D02031CD42E0130D700AD01580867
:102DD2002D020318FA2E2D08C03EA3002A300A162F
:102DE2008A152E230A168A11013083120313AD07A6
:102DF200E82E04305802031808006708031D032F49
:102E02002030042F5F30AB000030AC005808C03EC9
:102E1200A3002B080A168A152E2308008312AC0081
:102E22000230590603190800033059060319080035
:102E320014306302031C2F2F0A168A15A6220A16C3
:102E42008A116708031D272F0130282F0030E70061
:102E52000230560203182F2F0130D6072C08031D0B
:102E62004C2F00305102643003195002031C4C2FC6
:102E7200F730A0008130A1000A168A15E5260A164D
:102E82008A110A168A1516230A168A1102300A16A0
:102E92008A15862708002C080319542F0A168A154A
:102EA200BD220A168A112C03031D6A2F8830A00046
:102EB2008430A1000A168A15E5260A168A110A1616
:102EC2008A1516230A168A1102300A168A158627CF
:102ED200080002305602031C08000430580203188E
:102EE200B42F04302C0603197A2F05302C06031D4B
:102EF200B42F04302C060319802F3130812F30304B
:102F0200A7000030A8002708A9005908031D8C2F2C
:102F12005808AE3E8E2F5808A53E84002908831318
:102F220080000130D8070130E7000A168A15A62270
:102F32000A168A11D230A0008630A1000A168A151C
:102F4200E5260A168A115808303E0A168A15C22248
:102F52000A168A11BB30A0008230A1000A168A1517
:102F6200E5260A168A1104305806031D080059087E
:102F7200031DCE2F4A30A0008130A1000A168A1507
:102F8200E5260A168A110130D900D801D70101308D
:102F9200E7000A168A15A62208000130AA00AB0132
:102FA2002B08A53E840083130008A6002B08AE3E22
:102FB2008400000826060319E02FAA01E62F01303B
:102FC200AB0704302B02031CD12F2A08031DEB2F61
:102FD2000330EC2F0230D9002A080319F82F4030B1
:102FE200A0008230A1000A168A15E5260800833067
:0E2FF200A0008230A1000A168A15E52608000C
:10354C00E301080083125308080083125B0808008B
:10355C000A168A15FB22111408000A168A15FB227A
:10356C00111508000A168A15FB2291140800831203
:10357C000313D001D1010800F9000C1EC32A7908ED
:10358C0099000800D20101308316B900AD01080082
:10359C0001340134FF34FF34FF34FF340030F700C2
:1035AC00F8000A168A117B2008000130F700003061
:1035BC00F8000A168A117B2008008316880109116D
:1035CC0089100A168A1112210800FF308316031382
:1035DC008600FF3083128600080064008001840A94
:1035EC000406031900340406F42A83160313141971
:1035FC00FB2A11081F3903190800FB2AFF3083121C
:10360C000313EB00FF30EA00FF30E9000800DB0198
:10361C007630A0008330A1000A168A15E526080032
:10362C0083120313DA01FF30FA000A168A15BD2241
:10363C0008007308F6007208F50007300310F60C4A
:10364C00F50CFF3E031D242B750802397404080089
:10365C00F900F20123080A168A1589240A168A151C
:10366C00F201F20A79080A168A158924080000303A
:10367C000A128A11D6200A168A158312A700A501F0
:10368C0027087F390A168A156B240800F400F30109
:10369C00741C522B7208F3070310F20D0310F40C78
:1036AC007408031D4E2B73080800F20101300A1632
:1036BC008A1589240A168A150D30F700FB30F6009E
:1036CC00F60B662BF70B662B6B2B08008312031380
:1036DC00D901D8010130E700D701D6010A168A15A5
:1036EC00A6220A168A150A168A15BD220800E001C0
:1036FC00DF01DE01DD01053061020318872BE201D9
:10370C00892B0430E2000A168A15A6220A168A159D
:10371C000A168A15BD220800F40174087207F3001A
:10372C007308840083130008FF007408A93E84000A
:10373C007F0880000130F40704307402031808007D
:10374C00932BF5007508F40003300310F40DFF3EC5
:10375C00031DAB2B1F08C73974049F001F151F19BD
:10376C00B52B1E08F30083161E08F2000800831602
:10377C000108C039073881003D30831281000B11DC
:10378C008B16313090000B308F00DC308E000C101B
:10379C0083160C140B178B1708000A168A15DB22DC
:1037AC000A168A15A7000B3027020318E42B2708EA
:1037BC00A300A4012308A5002408E72B0A30A500C8
:1037CC000030A60025080800F50072088400750872
:1037DC00F40004300310F40CFF3E031DF02B7408AE
:1037EC000F39303E831380007308840075080F393D
:1037FC00303E80000800F6000A168A15FB220A16D5
:10380C008A157608831293000A168A15FB22031078
:10381C00111F0314003003180130F400F501740873
:10382C00F2007508F3000800003083120313A000A7
:10383C00A100A2010A168A1551260A168A15003A09
:10384C0003190800013083120313A0000030A100FB
:10385C00A2010A168A1551260800F2000A168A15CA
:10386C00FB220A168A1591150A168A15FB220A16CE
:10387C008A1583121308F3007203031D492C831657
:10388C00031391164C2C8316031391121116730803
:10389C000800F5017508A93E840083130008F400A4
:1038AC007508A03E8400000874060319602CF20110
:1038BC00F30108000130F50704307502031C502C8D
:1038CC000130F2000030F3000800A6000A168A1539
:1038DC00AE220A168A15D0300A168A1501240A1649
:1038EC008A15831225080A168A1501240A168A15C8
:1038FC00831226080A168A1501240A168A150A1636
:10390C008A15B3220800F500721C902C8312031345
:10391C000915932C83120313091175088800891457
:10392C00A630F300F30B982C0000831203138910BC
:10393C001B30F4009E30F300F30BA22CF40BA22CE2
:10394C0000000800F300F50172080319C52C0130C2
:10395C00F400F21BB62C0310F20D0130F407AF2C5F
:10396C000310F50D72087302031CC02C7208F302CD
:10397C0075140310F20C0130F402031DB62C7508FB
:10398C000800A0000830A100A2012008F7000730B1
:10399C000310F70CFF3E031DCE2C2208F80078070D
:1039AC007704A2000310A00D76082202031CE02C61
:1039BC007608A2020130A102031DCB2C22080800BC
:1039CC00F601F701721CF02C7408F6070318F70ABD
:1039DC007508F70701300310F40DF50DFF3E031DBC
:1039EC00F12C01300310F30CF20CFF3E031DF82CEC
:1039FC0072087304031DE82C7708F3007608F200B4
:103A0C000800A5002408A3000A30F20025080A16B5
:103A1C008A15A8240A168A15303E0A168A152E23F2
:103A2C000A168A15831203132408013EA3000A30D8
:103A3C00F60025080A168A15C7240A168A15303E80
:103A4C000A168A152E2308000B1D332D3D308312C8
:103A5C00031381000B110130E307831203130C1CB9
:103A6C00472D0B308F00DC308E000C10500A0319E0
:103A7C00510A0319472D0130D0070318D10A003021
:103A8C00D10771088A00700E8300FE0E7E0E0900AD
:103A9C00F6005E2D013008000230080003300800EB
:103AAC00043008000530080006300800003008001B
:103ABC0076081F3A03195A2D303A0319582D183A23
:103ACC000319562D0C3A0319542D063A0319522D8D
:103ADC00033A0319502D5C2D0800F800F90132301F
:103AEC00790203189A2D0A168A15AE220A168A151F
:103AFC0078080A168A1501240A168A1572087304A6
:103B0C0003198D2D0A168A15B322013008000A16E6
:103B1C008A15B3220A168A150130F907A630F70068
:103B2C00F70B962D0000752D003008000A168A152B
:103B3C005B230A168A153330F6008430F700803088
:103B4C00F8000A168A15C7250A168A159830A0009F
:103B5C008530A1000A168A15E5260A168A15083042
:103B6C0083120313A6009D30A5000530A400A40BFE
:103B7C00BD2DA50BBD2DA60BBD2D0A168A151A241D
:103B8C000800F20178080A168A1589240A168A1583
:103B9C00770883120313FF00760884000A128A1137
:103BAC0000210A168A15003A03190800F201F20ADC
:103BBC007708FF00760884000A128A1100210A1681
:103BCC008A150A168A1589240A168A150130F607F1
:103BDC000318F70A0030F707CE2DF90023088400EC
:103BEC006430F20079080A168A15A8240A168A1578
:103BFC00303E83138000240884000A30F6000A301B
:103C0C00F20079080A168A15A8240A168A150A16CB
:103C1C008A15C7240A168A15303E8313800025089E
:103C2C0084000A30F60079080A168A15C724303E3B
:103C3C008313800008007208730403194C2E0130A2
:103C4C00F600F31B332E01300310F20DF30DFF3E83
:103C5C00031D2A2E0130F607272E73087502031D4B
:103C6C00392E72087402031C412E7208F402730878
:103C7C00031CF503F50201300310F30CF20CFF3EAC
:103C8C00031D422E0130F602031D332E7508F3007E
:103C9C007408F20008002108F3002008F200A0309C
:103CAC00F4000A168A151F230A168A15A3000A1691
:103CBC008A15AE220A168A15831223080A168A154B
:103CCC0001240A168A15831220080A168A15012463
:103CDC000A168A15831222080A168A1501240A1656
:103CEC008A150A168A15B3220A168A158312230816
:103CFC000A168A15732508009415141194101410C3
:103D0C003908BD003A08BE003B08BF003C08C000A3
:103D1C0002300310BD0DBE0DBF0DC00DFF3E031DC7
:103D2C008F2E4008AF003F08AE003E08AD003D08A6
:103D3C00AC000130B3003130B2002D30B100003096
:103D4C00B0000A168A11C1212C08FF3E831693007D
:103D5C0087150716831294160800981783161812E5
:103D6C00831218168316181583123908BD003A08E9
:103D7C00BE003B08BF003C08C00004300310BD0D62
:103D8C00BE0DBF0DC00DFF3E031DC42E4008AF007D
:103D9C003F08AE003E08AD003D08AC000130B3005A
:103DAC003130B2002D30B1000030B0000A168A114B
:103DBC00C1212C08FF3E8316990098160800210893
:103DCC00FF00200884000A128A1100210A168A15A5
:103DDC00003A031908002108FF00200884000A1289
:103DEC008A1100210A168A150A3A031D032F0D3079
:103DFC000A168A15C2220A168A152108FF00200805
:103E0C0084000A128A1100210A168A150A168A15CC
:103E1C00C2220A168A150130A0070318A10A003025
:103E2C00A107E52EF30073030319372F3A2F7B08F4
:103E3C000319412FF401F5010130F4070318F50AB9
:103E4C000030F50701307502F43003197402031CBD
:103E5C00222F3F300605F2003F30720603194A2F1D
:103E6C00FB0106083F3908003F300605F2003F30E1
:103E7C007206031D1D2F3F300605F2003F307206FF
:103E8C00031D4A2F0130FB003F300800F701F801F9
:103E9C00720873040319812F0130F600F31B602F95
:103EAC0001300310F20DF30DFF3E031D572F0130AF
:103EBC00F607542F01300310F70DF80DFF3E031DCC
:103ECC00612F73087502031D6D2F72087402031C99
:103EDC00762F7208F4027308031CF503F5027714AD
:103EEC0001300310F30CF20CFF3E031D772F013051
:103EFC00F602031D602F7808F3007708F200080023
:103F0C0083120313A5000A168A155B230A168A1559
:103F1C00133083120313A0008730A1000A168A15F0
:103F2C00E5260A168A152508A2002207123E8400EF
:103F3C0081300318013EFF000A128A1100210A1673
:103F4C008A15A3000A128A1100210A168A15A400E8
:103F5C002308A0002408A1000A168A15E5260A16D3
:103F6C008A15BC30A0008230A1000A168A15E526FD
:103F7C002508D30008000030AB000030AA00003048
:103F8C00A9000030A800201CDF2F2408A807250852
:103F9C0003110318013E031DA9072608031103187A
:103FAC00013E031DAA07270803110318013E031D38
:103FBC00AB070130F6000310A40DA50DA60DA70D3F
:103FCC00F60BE12F01300310A30CA20CA10CA00CDA
:103FDC00FF3E031DE92F2308220421042004031DA6
:103FEC00C92F2B08A3002A08A2002908A100280821
:043FFC00A000080019
:02400E007A3FF7
:00000001FF
