:100000000A128A11E52FFF1B0D2883137F1883170F
:100010000008840A0319FF0A080000308A00040857
:10002000840A8207003424341E340F341234153409
:100030001834543449344D34453400344334203476
:1000400000344734313400344734323400344734D8
:1000500033340034473434340034533444340034BB
:1000600047344E3400344F344E3400344734523425
:0800700000344534563400341D
:10045A00FF34FF3401340A128A115F220A128A1108
:10046A0083160313911408000A128A115F220A12D2
:10047A008A1183160313111408000A128A115F22C3
:10048A000A128A118316031311150800FF30831606
:10049A0003138600FF3083120313860008008316B5
:1004AA0003138801091189100A128A11CC250A122C
:1004BA008A110800831603131419642A652A5F2A0D
:1004CA0011081F39031D6A2A6B2A5F2A08000A12BB
:1004DA008A11BE230A128A110A128A11B2220A1238
:1004EA008A11712A0A128A110028F0000A128A1146
:1004FA005F220A128A1170088312031393000A12E8
:10050A008A115F220A128A11080000300A128A111F
:10051A0064230A128A11F4007F30F405F101740889
:10052A000A128A11E6220A128A1108008312031398
:10053A001F139F17831603131F13831203139F118D
:10054A001F129F12831603139F171F109F101F114C
:10055A009F11831203131F1408003930F4000A1282
:10056A008A1144230A128A113930F7000A128A11B1
:10057A0023260A128A110A128A1158270A128A1184
:10058A000A128A11E6260A128A110800F300730871
:10059A00F20003300310F20DFF3E031DCF2A83122F
:1005AA0003131F08C73972049F001F151F19DE2A7B
:1005BA00DF2ADB2A1E08F100831603131E08F00047
:1005CA000800F2000A128A1139220A128A11D0305E
:1005DA000A128A117A220A128A1171080A128A11D7
:1005EA007A220A128A1172080A128A117A220A12C5
:1005FA008A110A128A1142220A128A110800F30089
:10060A007018082B0C2B8312031309150F2B831256
:10061A0003130911730888008914A630F100F10B3D
:10062A00142B00008312031389101B30F2009E3032
:10063A00F100F10B1E2BF20B1E2B00000800F0003C
:10064A000A128A115F220A128A118316031391155C
:10065A000A128A115F220A128A11831203131308DB
:10066A00F100700303193A2B3E2B831603139116DC
:10067A00412B83160313911211167108080074088E
:10068A00840000300A128A1164230A128A11831321
:10069A008000740A840001300A128A1164230A1243
:1006AA008A11831380007408023E840002300A1201
:1006BA008A1164230A128A11831380000800F20047
:1006CA000A128A1139220A128A11D0300A128A11A0
:1006DA007A220A128A1172080A128A117A220A12D4
:1006EA008A110A128A1130220A128A11D1300A1288
:1006FA008A117A220A128A1101300A128A112423D3
:10070A000A128A11F3000A128A1142220A128A1163
:10071A0073080800F00176080A128A1104230A12E3
:10072A008A11AD2BF001F00A7508FF0074088400E5
:10073A000A128A1103200A128A110A128A11042340
:10074A000A128A110130F4070318F50A0030F50776
:10075A00750883120313FF00740884000A128A11B1
:10076A0003200A128A11003A031DBC2BBD2B972BBA
:10077A0008000A128A1154220A128A110A128A11CC
:10078A004B220A128A11003083120313B40000307C
:10079A00B3002530B2008030B1000A128A116224F7
:1007AA000A128A11003083120313B4000130B30015
:1007BA008630B200A030B1000A128A1129240A1226
:1007CA008A110A128A118A220A128A110A128A11B3
:1007DA009B220A128A110800770878040319F62B5B
:1007EA00F72B242C0130FB00032C01300310F70DEA
:1007FA00F80DFF3E031DFB2B0130FB07F81F062CEB
:10080A00072CFA2B78087A02031D0D2C7708790237
:10081A00031C102C112C172C7708F9027808031CDA
:10082A00FA03FA0201300310F80CF70CFF3E031D1D
:10083A00182C0130FB02031D232C242C072C7A08C8
:10084A00F8007908F70008008312031394151411AD
:10085A00941014103108B5003208B6003308B700F6
:10086A003408B80002300310B50DB60DB70DB80D37
:10087A00FF3E031D382C3808A7003708A6003608A3
:10088A00A5003508A4000130AB003130AA002D3094
:10089A00A9000030A8000A128A1180260A128A11B9
:1008AA00831203132408FF3E83160313930087154C
:1008BA00071683120313941608008312031398175A
:1008CA0083160313181283120313181683160313BD
:1008DA001815831203133108B5003208B60033081D
:1008EA00B7003408B80004300310B50DB60DB70DC3
:1008FA00B80DFF3E031D792C3808A7003708A6005B
:10090A003608A5003508A4000130AB003130AA0032
:10091A002D30A9000030A8000A128A1180260A1276
:10092A008A11831203132408FF3E831603139900C6
:10093A0098160800F401F501700871040319A62C31
:10094A00A72CDC2C0130F600B32C01300310F00D7B
:10095A00F10DFF3E031DAB2C0130F607F11FB62C3B
:10096A00B72CAA2C01300310F40DF50DFF3E031D20
:10097A00B82C71087302031DC42C70087202031C80
:10098A00C72CC82CCF2C7008F2027108031CF30381
:10099A00F302741401300310F10CF00CFF3E031D36
:1009AA00D02C0130F602031DDB2CDC2CB72C750889
:1009BA00F1007408F0000800F1007103031DE62C31
:1009CA00E72CEC2C8312031306083F392B2D7108F0
:1009DA00031DF02CF12C2A2D3F3083120313060538
:1009EA00F0003F3070060319FB2CFC2C1F2D430826
:1009FA000319002D012D1F2DF201F3010130F20719
:100A0A000318F30A0030F30701307302F4300319B4
:100A1A007202031C112D122D032D3F308312031372
:100A2A000605F0003F30700603191C2D1D2D2A2DD6
:100A3A00C301E72C3F300605F0003F307006031D66
:100A4A00272D282D2A2D0130C3003F300800003001
:100A5A0083120313A3000030A2000030A10000306B
:100A6A00A000741C392D3A2D532D780883120313D4
:100A7A00A007790803110318013E0319452DA107A0
:100A8A007A0803110318013E03194C2DA2077B08AB
:100A9A0003110318013E0319532DA3070130FC006B
:100AAA000310F80DF90DFA0DFB0DFC0B552D013055
:100ABA000310F70CF60CF50CF40CFF3E031D5D2D2C
:100ACA007708760475047404031D6C2D6D2D362D7C
:100ADA00831203132308F7002208F6002108F50001
:100AEA002008F400080083120313220884006430EB
:100AFA00F0000030F1002108F3002008F2000A1289
:100B0A008A119F240A128A117008303E83138000CA
:100B1A0083120313220A84000A30F7000030F80017
:100B2A000A30F0000030F1002108F3002008F2003A
:100B3A000A128A119F240A128A117108FA0070088F
:100B4A00F9000A128A11F1230A128A117708303E33
:100B5A0083138000831203132208023E84000A30A2
:100B6A00F7000030F8002108FA002008F9000A12FC
:100B7A008A11F1230A128A117708303E8313800002
:100B8A00831203132208033E840080010800C33045
:100B9A00F500CD30F400F40BD02DF50BD02DF0017B
:100BAA0033300A128A1104230A128A111B30F50003
:100BBA009E30F400F40BDF2DF50BDF2D0000F00161
:100BCA0033300A128A1104230A128A11A630F40059
:100BDA00F40BED2D0000F00133300A128A110423C0
:100BEA000A128A11F82DF92D0000F00138300A1284
:100BFA008A1104230A128A11A630F400F40B032E78
:100C0A000000F00101300A128A1104230A128A1123
:100C1A000430F5003D30F400F40B112EF50B112EC3
:100C2A00162EF0010C300A128A1104230A128A11B4
:100C3A00A630F400F40B1F2E000008000730F40061
:100C4A008030F5008030F6000A128A118F230A12CA
:100C5A008A117708023E840083130008F8000430E2
:100C6A000310F80CFF3E031D352E78080339303E79
:100C7A0083120313A0007708023E840000080F398C
:100C8A00303EA1003A30A200770A84000008F8003A
:100C9A0004300310F80CFF3E031D4E2E7808073966
:100CAA00303EA300770A840000080F39303EA400C2
:100CBA003A30A500770884000008F80004300310D1
:100CCA00F80CFF3E031D642E78080739303EA60053
:100CDA007708840000080F39303EA700A8012030A9
:100CEA00F4000030F500C030F6000A128A118F2392
:100CFA000A128A110800003083120313AF00003071
:100D0A00AE000030AD000030AC00270826042504F0
:100D1A0024040319912E922EDD2E0130B000A02E4C
:100D2A000130FD000310A40DA50DA60DA70DFD0BA6
:100D3A00972E0130B007A71FA32EA42E952E01309F
:100D4A00FD000310AC0DAD0DAE0DAF0DFD0BA62EC3
:100D5A0027082B02031DBB2E26082A02031DBB2EC1
:100D6A0025082902031DBB2E24082802031CBE2EB7
:100D7A00BF2ECE2E2408A8022508031C250FA9027F
:100D8A002608031C260FAA022708031C270FAB02FA
:100D9A002C1401300310A70CA60CA50CA40CFF3EC2
:100DAA00031DCF2E0130B002031DDC2EDD2EA42E32
:100DBA002F08A7002E08A6002D08A5002C08A400BD
:100DCA0008001B30F4008030F5008D30F6000A125E
:100DDA008A118F230A128A11003083120313A70083
:100DEA000030A6000330A500FF30A40000300A122C
:100DFA008A11CB220A128A11700883120313B100D6
:100E0A007108B200B301B4013408F7003308F600E0
:100E1A003208F5003108F4000030FB000030FA0017
:100E2A000030F9006430F8000A128A112C250A12DF
:100E3A008A11770883120313AB007608AA00750893
:100E4A00A9007408A8000A128A1180260A128A11B7
:100E5A00831203132508BD002408BC0042083D067E
:100E6A00031D392F41083C0603193C2F3D2F572FEC
:100E7A003D08C2003C08C1003D08A1003C08A00092
:100E8A003530A2000A128A1178250A128A113530E1
:100E9A00F4000030F500CD30F6000A128A118F23D3
:100EAA000A128A1108002730F4008030F5008A30CF
:100EBA00F6000A128A118F230A128A1100300A12C6
:100ECA008A11E1240A128A11F7003E307706031DBF
:100EDA006F2F702F872F831203133E08031D762F5F
:100EEA00772F872F0130BF000130BE000C30F4008D
:100EFA008030F500CA30F6000A128A118F230A12CE
:100F0A008A11B52F3D307706031D8C2F8D2F9F2F09
:100F1A00831203133E08031D932F942F9F2F013032
:100F2A00BF000530400203189B2F9C2FB52F0130BC
:100F3A00C007B52F3B307706031DA42FA52FB52F69
:100F4A00831203133E08031DAB2FAC2FB52F0130BC
:100F5A00BF0040080319B22FB32FB52F0130C002CA
:100F6A00831203133F03031DBB2FBC2FD42F3E084C
:100F7A00031DC02FC12FD42F4008013E84000A123E
:100F8A008A110D200A128A11F4008030F500CA3045
:100F9A00F6000A128A118F230A128A11E42F3F08D7
:100FAA00031DD82FD92FE42F2130F4008030F5000B
:100FBA00CA30F6000A128A118F230A128A1108000F
:100FCA000A128A112D220A128A11C1000A128A11E2
:100FDA002E220A128A11C2000A128A112F220A121A
:100FEA008A11C300BC01BD01BE01BF01C00183015A
:060FFA000A128A116C2AA4
:02400E007A3FF7
:00000001FF
