:060000000A128A110C280F
:10000800FE00030EF0000A08F1000A168A15D52F23
:100018000A128A110F280A168A1585250A128A11CA
:10002800EB000A168A1586250A128A11EC000A16B0
:100038008A1587250A128A11ED000A168A1588255D
:100048000A128A11EE000A168A1589250A128A11DF
:10005800EF000A168A1576250A128A11FA000A167E
:100068008A1577250A128A11FB0083134E30840003
:100078006B300A168A1591250A128A1183010A1211
:100088008A151A2D83120313A9000A168A15B42596
:100098000A128A1183120313AE000A168A15D9258B
:1000A8000A128A1183120313AF000A302E02031CAE
:1000B8005E285F286028AE010B302F02031C6528DC
:1000C800662868280A30AF000A30A0000030A10076
:1000D8002E08A500A6012608A8002F082502A700BB
:1000E800031CA80327080A3EA20028080318013E9B
:1000F800003EA3000A168A112D210A128A118312C2
:1001080003132008AC000A30A0000030A1002C081E
:100118002907A200A301A30D0A168A112D210A128C
:100128008A11831203132008AD002D08A500A6012B
:100138002508F2002608F3000B30F4000030F50023
:100148000A168A158B270A128A117208023E831230
:100158000313AA0073080318013E003EAB00B00168
:1001680030082407A5002508840030082A07F7006E
:100178002B0803182B0AF8000A168A1165230A129D
:100188008A1183138000013083120313B0070B30E8
:100198003002031CD028D128B42824080B3E840040
:1001A80080010800F50175083F3E8400813003187E
:1001B800013E83120313FF000A128A1100210A125A
:1001C8008A11F4007508553E8400831300087406EC
:1001D8000319EF28F028F328F201F301FF28013072
:1001E800F50704307502031CFA28FB28D7280130CC
:1001F800F2000030F3000800FF1B0A2983137F1860
:1002080083170008840A0319FF0A08007F087F394A
:100218008A000408840A0319FF0A82004D348534D1
:10022800733485347E348534573485342C3485349E
:10023800BF3484346A348534023484345234843488
:10024800623484347234843442348434923484344E
:1002580032348434A13485349B3485348C348534E9
:100268008F3485349234853495348534033404349A
:100278000534063407343134313431343134003400
:1002880000340F341E343C345B3443344834413436
:100298004E34473445345F34503441345334533446
:1002A80057344F34523444345D3420346E346F3410
:1002B80074342034793465347434203469346D34BA
:1002C80070346C3465346D3465346E34743465342C
:1002D80064340A3400345B344D3445344E34553478
:1002E8005D34203449344E34413443345434493431
:1002F80056344934543459342034E23480349434F4
:1003080020346134753474346F342D346C346F3464
:1003180067346F34753474340D340A3400345B3404
:100328005334453454345F34543449344D344534AB
:100338005D3420346E346F34743420347934653449
:100348007434203469346D3470346C3465346D34ED
:1003580065346E347434653464340A3400343D349E
:100368003D343D3420344334413452342034423413
:100378004C34413443344B34203442344F345834B1
:10038800203453345434413452345434453444348E
:1003980020343D343D343D340A3400345B34443435
:1003A8004F3457344E344C344F34413444345D3434
:1003B80020344E346F3420346C346F3467347334E3
:1003C8002034733474346F347234653464342E34A6
:1003D8000A3400343D343D343D3420344334413410
:1003E8005234203442344C34413443344B34203476
:1003F80042344F34583420344C344F34473420344A
:100408003D343D343D340A3400343D343D343D34CC
:100418003D343D343D343D343D343D343D343D344C
:100428003D343D343D343D343D343D343D343D343C
:100438003D343D343D343D343D343D340A3400349C
:100448005B344C344F34473449344E345D342034B3
:100458004C344F3443344B344F34553454342034B3
:1004680045345834503449345234453444340D34C6
:100478000A3400345B344C344F34473449344E34F6
:100488005D34203441344334433445345334533495
:1004980020344734523441344E345434453444348F
:1004A8000D340A3400342334233420344834483497
:1004B8003A344D344D343A34533453342034473479
:1004C80045344134523420345334503444340A349B
:1004D80000345B344C344F34473449344E345D3443
:1004E80020344C344F344734473445344434203472
:1004F8004F34553454340D340A3400345B344434A6
:100508004134533448345D342034493447344E340C
:100518004934543449344F344E3420344F344E34F3
:100528000A3400345B344C344F34473449344E3445
:100538005D342034433441344E34433445344C34F0
:100548004C34453444340A3400345B345334543422
:100558004134543445345D342034443441345334C4
:10056800483442344F344134523444340A34003429
:100578005B344C344F3447345D342034453445348F
:10058800503452344F344D34203446344134493495
:100598004C340A3400345B344C344F3447344934D7
:1005A8004E345D34203443344F345234523445345D
:1005B800433454340D340A3400345B344C344F34EF
:1005C800473449344E345D342034543449344D343E
:1005D80045344F34553454340D340A3400342034FF
:1005E80065346E3474347234693465347334203449
:1005F8002034203420342034203420342034003473
:100608005334573431343A34203442346134633407
:100618006B342034203420342034203420342034E7
:1006280000344C344F3447345334203443344C343E
:100638004534413452344534443420342034203451
:10064800203400344E346F3420344C346F346734E3
:100658007334203446346F3475346E346434203443
:10066800203420340034533465346E3464346934AF
:100678006E34673420344C346F34673473342E341A
:100688002E342E34203400345B344C344F34473409
:100698005D34203445344534503452344F344D346D
:1006A80020344F344B340A340034203420344C3452
:1006B8006F3463346B34653464342134203420342B
:1006C8002034203420342034203400345034613431
:1006D8007334733457346F34723464343A34203496
:1006E8002034203420342034203420340034203482
:1006F8007434723469346534733420346C3465343A
:1007080066347434203420342034203420340034C7
:1007180044346534763469346334653420344C3475
:100728006F3463346B3465346434203420342034BB
:10073800003443346F346E34743461346334743445
:100748002034413464346D3469346E3420342034B8
:100758002034003449346E34763461346C3469346E
:100768006434203445346E3474347234793420342B
:1007780020342034003443346F3472347234653496
:1007880063347434203445346E34743472347934B8
:1007980020342034203400344434653476346934C9
:1007A8006334653420344C346F3463346B346534CB
:1007B80064342134203420340034413463346334C5
:1007C80065347334733420344734723461346E348E
:1007D8007434653464342034203400345B344C344D
:1007E8004F34473453345D34203443344C34453427
:1007F80041345234453444340A34003443344834A0
:1008080041344E34473445345F34503441345334E2
:10081800533457344F345234443400345B344D34F9
:1008280045344E3455345D3420344C344F344734D9
:100838004F34553454340D340A34003420342034C1
:100848002034203420342034203420342034203400
:100858002034203420342034203400344C344F34B5
:1008680047344F3455345434203420342034203421
:100878002034203420342034203400345334453498
:1008880054342034543449344D34453420342034DD
:100898002034203420342034203400345634493471
:1008A8004534573420344C344F34473420342034C2
:1008B80020342034203420342034003443344C3461
:1008C80045344134523420344C344F344734203486
:1008D80020342034203420342034003444344F343D
:1008E80057344E344C344F344134443420344C342F
:1008F8004F34473420342034203400345B344D34B2
:1009080045344E3455345D342034533445344C34F6
:100918004534433454343A3420340034433448346E
:1009280041344E3447344534203450344134533400
:10093800533457344F345234443400345B344C34D9
:100948004F34473449344E345D3420346434693488
:10095800673469347434203400345B344C344F3495
:10096800473453345D34203465346D347034743412
:1009780079340A34003444344F3457344E344C34C8
:100988004F34413444345F344C344F344734533457
:1009980000345B344D3445344E3455345D342034A2
:1009A8004234413443344B340D340A3400345B341C
:1009B8004C344F34473449344E345D342034463453
:1009C800413449344C34203400345B3444344134A9
:1009D800533448345D34203443345234413453342E
:1009E80048340A3400345B34443441345334483492
:1009F8005D34203447344534413452343A34203459
:100A080000345B344C344F34473453345D34203431
:100A18004234413443344B340A3400345B344C346C
:100A28004F34473453345D3420344E3445345834CD
:100A380054340A3400345B344C344F344734533420
:100A48005D34203450345234453456340A3400343A
:100A580043344C344534413452345F344C344F348D
:100A68004734533400344C344F34473447344534D6
:100A7800443420344F3455345434003452346534BB
:100A8800743472347934203469346E343A3420340E
:100A98000034443441345334483442344F344134BC
:100AA80052344434003456344934453457345F346E
:100AB8004C344F344734533400345B345334543457
:100AC8004134543445345D3420340034533445348F
:100AD80054345F34543449344D34453400344C3440
:100AE8004F34473449344E3400344C344F3447344F
:100AF800203400344D3445344E34553400343F34BA
:100B08003F34003443345234003443342034003406
:100B180047343134003447343234003447343334C2
:100B280000344734343400345334443400344734C4
:100B38004E3400344F344E34003447345234003489
:100B48004534563400342F340034043083120313F0
:100B58006706031DB02DB12DC82D8C30F6008330EB
:100B6800F7008030F8000A168A112F200A128A111D
:100B78009D30F6008330F700C030F8000A168A115D
:100B88002F200A128A11AA2F03306706031DCD2DC4
:100B9800CE2D1E2E0A168A1532260A128A11BF3049
:100BA800F6008330F7008030F8000A168A112F20EB
:100BB8000A128A11E130F6008330F700C030F800DD
:100BC8000A168A112F200A128A111A308312031367
:100BD800AD005E30AC006D30AB00AB0BF12DAC0B53
:100BE800F12DAD0BF12DF82D3E3083120313A50026
:100BF8008230A6000A168A111A220A128A110130B6
:100C080083120313E000443084008130FF000A128D
:100C18008A1100210A128A11E100E6010A168A15D2
:100C2800BA260A128A1102300A168A11DC220A121E
:100C38008A11AA2F6703031D222E232E9D2E6608D4
:100C4800053CAE000A168A1532260A128A11AE3001
:100C5800F6008330F7008030F8000A168A112F203A
:100C68000A128A110530831203136602031C3D2EF3
:100C78003E2E5C2ED030F6008330F700C030F800EE
:100C88000A168A112F200A128A113330831203138D
:100C9800AD00BB30AC00DF30AB00AB0B512EAC0B62
:100CA800512EAD0B512E043083120313E700972EFB
:100CB800C030A4002E08303E0A168A1543260A12B0
:100CC8008A117B30F6008330F700C130F8000A162D
:100CD8008A112F200A128A11273083120313AD00BC
:100CE8000D30AC002530AB00AB0B782EAC0B782E5A
:100CF800AD0B782E7F2E0A168A1580250A128A11C6
:100D0800831203136608433E840081300318013EB2
:100D1800FF000A128A1100210A128A11E10002302A
:100D2800E700E301E5010A168A1532260A128A113C
:100D3800AA2F02306706031DA22EA32E4B2F63088D
:100D4800031DA72EA82EBE2E0A168A1532260A12B1
:100D58008A115930F6008330F7008030F8000A16FF
:100D68008A112F200A128A11013083120313E3001B
:100D7800FF30EC0061086C060319C32EC42EAA2F9D
:100D88006108EC004230F6008530F700C030F8000A
:100D98000A168A112F200A128A11CA3083120313E5
:100DA800A4006430F2000030F3006108AB00AC012D
:100DB8002B08F4002C08F5000A168A1158220A128A
:100DC8008A117208303E0A168A1543260A128A11B9
:100DD800CB3083120313A4000A30A0000030A10016
:100DE8000A30F2000030F3006108AB00AC012B08B8
:100DF800F4002C08F5000A168A1158220A128A11E2
:100E0800730883120313A3007208A2000A168A113A
:100E18002D210A128A11831203132008303E0A1664
:100E28008A1543260A128A11CC3083120313A400B0
:100E38000A30A0000030A1006108AB00AC012B080B
:100E4800A2002C08A3000A168A112D210A128A1161
:100E5800831203132008303E0A168A1543260A1205
:100E68008A11CD3083120313A40073300A168A1531
:100E780043260A128A112F30F6008430F700CE304C
:100E8800F8000A168A112F200A128A11AA2F63085D
:100E9800031D4F2F502F782F0A168A1532260A1253
:100EA8008A116A30F6008330F7008030F8000A169D
:100EB8008A112F200A128A1183120313B1013108F3
:100EC800C03EA40020300A168A1543260A128A1149
:100ED800013083120313B10704303102031C752F4C
:100EE800762F632F0130E300B101872F3108C03E10
:100EF800A4002A300A168A1543260A128A110130DC
:100F080083120313B10765083102031C8C2F8D2F40
:100F18007A2F043065020318922F932FAA2F6408A2
:100F2800031D972F982F9D2F2030AF000030B00061
:100F3800A12F5F30AF000030B0006508C03EA400AC
:100F48002F080A168A1543260A128A110800720801
:100F580084008317731C8313831203134E088000C5
:100F68007208013EF40073080318013E003EF500C4
:100F7800740884008317751C83134F088000720857
:100F8800023EF40073080318013E003EF5007408A1
:100F980084008317751C8313500880007208033E71
:100FA800F40073080318013E003EF500740884003D
:100FB8008317751C8313520880007208043EF400DE
:100FC80073080318013E003EF50074088400831777
:100FD800751C8313510880007208053EF4007308DD
:100FE8000318013E003EF500740884008317751C41
:100FF8008313530880000800003083120313AB00EA
:101008000030AA000030A9000030A800201C0D28DC
:101018000E2825282408A807250803110318013ECF
:1010280003191728A907260803110318013E0319F5
:101038001E28AA07270803110318013E03192528AB
:10104800AB070130F6000310A40DA50DA60DA70DE2
:10105800F60B272801300310A30CA20CA10CA00C3E
:10106800FF3E031D2F282308220421042004031D0A
:101078003E283F280A282B08A3002A08A20029088E
:10108800A1002808A000080083120313AE002E0850
:1010980003194F28502855280A168A1580250A1240
:1010A8008A150130831203135B022C3003195A028C
:1010B800031C5F2860287F286F30A5008130A600B8
:1010C8000A168A111A220A128A150A168A1506267B
:1010D8000A128A150A168A15C6250A128A150A16C8
:1010E8008A15EE250A128A1500300A168A11DC22A2
:1010F8000A128A154C2902302E06031D84288528D9
:101108008E2805305F0203188A288B288E28013024
:10111800DF074C2903302E06031D932894289C28AA
:101128005F080319982899289C280130DF024C2968
:1011380004302E06031DA128A228322905305F0697
:10114800031DA728A828E5281230A5008430A6008A
:101158000A168A111A220A128A150A168A150626EA
:101168000A128A150A168A15EE250A128A150A160F
:101178008A1532260A128A153730F6008530F700AC
:101188008030F8000A168A112F200A128A15333087
:1011980083120313AD00BB30AC00DF30AB00AB0BE8
:1011A800D328AC0BD328AD0BD3280A168A15C6252D
:1011B8000A128A1500300A168A11DC220A128A15C8
:1011C8004C298230A5008430A6000A168A111A22FA
:1011D8000A128A15831203135F08AB002B07223EFD
:1011E800840081300318013EFF000A128A11002191
:1011F8000A128A15AC000A128A1100210A128A15ED
:10120800AD002C08A5002D08A6000A168A111A227E
:101218000A128A153B3083120313A5008230A600F8
:101228000A168A111A220A128A15831203135F08F2
:101238003A3E840081300318013EFF000A128A11E9
:1012480000210A128A150A168A11DC220A128A1546
:101258000A168A15EE250A128A154C292E03031D33
:10126800362937294C29CD30A5008430A6000A1626
:101278008A111A220A128A1500300A168A11DC22EB
:101288000A128A150A168A15C6250A128A152C29E1
:1012980008006E30F6008530F7008030F8000A1636
:1012A8008A112F200A128A15831203134E08A400EC
:1012B80004300310A40CFF3E031D5D2924080339E4
:1012C800303EA7004E080F39303EA8003A30A9003A
:1012D8004F08A40004300310A40CFF3E031D6F291F
:1012E80024080739303EAA004F080F39303EAB00BA
:1012F8003A30AC005008A40004300310A40CFF3EA0
:10130800031D812924080739303EAD0050080F39E4
:10131800303EAE00AF012730F6000030F700C03095
:10132800F8000A168A112F200A128A15A430F6002E
:101338008530F7008A30F8000A168A112F200A1221
:101348008A158312031351086E06031DAC29AD29B3
:10135800B32953086D060319B229B329F72951088F
:10136800EE005308ED00D31CBA29BB29C7298930E0
:10137800F6008530F700CA30F8000A168A112F20C7
:101388000A128A15F729531CCA29CB29EC295108B6
:10139800A40024072E3E840081300318013EFF007C
:1013A8000A128A1100210A128A15A5000A128A1146
:1013B80000210A128A15A6002508F6002608F7005B
:1013C800CA30F8000A168A112F200A128A15F7293E
:1013D8009E30F6008530F700CA30F8000A168A11E8
:1013E8002F200A128A159830F6008530F7008D30C4
:1013F800F8000A168A112F200A128A15831203137D
:1014080052086F060319092A0A2A662A5208EF00A9
:101418006430F2000030F3005208A400A50124084B
:10142800F4002508F5000A168A1158220A128A15AE
:101438007208303E83120313B0000A30A000003057
:10144800A1000A30F2000030F3005208A400A50100
:101458002408F4002508F5000A168A1158220A12F1
:101468008A15730883120313A3007208A2000A16D0
:101478008A112D210A128A15831203132008303E7F
:10148800B1000A30A0000030A1005208A400A50154
:101498002408A2002508A3000A168A112D210A1281
:1014A8008A15831203132008303EB200B30130308E
:1014B800F6000030F700CD30F8000A168A112F2008
:1014C8000A128A1508000A168A15D5260A128A15DC
:1014D80083120313C3004308031D732A742AA42A22
:1014E8005C08031D782A792AB42B0A168A15322635
:1014F8000A128A152630F6008330F7008030F8008B
:101508000A168A112F200A128A150430F600833031
:10151800F700C030F8000A168A112F200A128A151F
:10152800B13083120313A5008430A6000A168A116D
:101538001A220A128A15013083120313DC00B42B15
:10154800DC016B08031DA92AAA2AAB2AB42BEB01DC
:101558003530A4005D080A128A1146200A128A153D
:10156800831203133C080A168A119A220A128A1552
:10157800720883120313C1007308C2007930F600A1
:101588008530F7008030F8000A168A112F200A12D9
:101598008A15843083120313A6005D08013E0A16DB
:1015A8008A11A2210A128A15863083120313A40015
:1015B8002F300A168A1543260A128A158730831295
:1015C8000313A60043080A168A11A2210A128A15D3
:1015D8002A30F6008430F7008930F8000A168A119C
:1015E8002F200A128A15C03083120313A40035086D
:1015F8000A168A1543260A128A15C1308312031364
:10160800A40036080A168A1543260A128A15C2301B
:1016180083120313A4003A300A168A1543260A12C5
:101628008A15C33083120313A40037080A168A15D3
:1016380043260A128A15C43083120313A4003808FB
:101648000A168A1543260A128A15C530831203130F
:10165800A4003A300A168A1543260A128A15C6309B
:1016680083120313A40039080A168A1543260A129E
:101678008A15C73083120313A4003A080A168A157C
:1016880043260A128A15C83083120313A400203097
:101698000A168A1543260A128A15C93083120313BB
:1016A800A4004208FF00410884000A128A110021A0
:1016B8000A128A150A168A1543260A128A15CA308A
:1016C80083120313A4000130B10031084107B300AD
:1016D8004208B2000318B20AB11BB2033208B400C0
:1016E8003408FF00330884000A128A1100210A1204
:1016F8008A150A168A1543260A128A15CB308312D0
:101708000313A40020300A168A1543260A128A15E4
:10171800CC3083120313A4003D080A168A15432609
:101728000A128A15CD3083120313A4003E080A1644
:101738008A1543260A128A15CE3083120313A40091
:101748003F080A168A1543260A128A15CF308312D3
:101758000313A40020300A168A1543260A128A1594
:10176800080083120313B300043067060319BD2B66
:10177800BE2B192D03306706031DC32BC42BC52BA5
:10178800192D14306802031CCA2BCB2BE22B0A1626
:101798008A1100200A128A15831203136408031998
:1017A800D62BD82B0130D92B0030E400023062024E
:1017B8000318DF2BE02BE22B0130E207023067062B
:1017C800031DE72BE82B382C0A30F2000030F30019
:1017D8005B08F5005A08F4000A168A1158220A1202
:1017E8008A15720883120313B1006608433E840009
:1017F80081300318013EFF000A128A1100210A12E3
:101808008A15B20032083102031C0B2C0C2C0F2C49
:10181800AD01AE01172C31083202AB00AC012B0828
:10182800AD002C08AE002D08E1006108031D1D2C39
:101838001E2C192D2430A5008230A6000A168A1104
:101848001A220A128A1583120313E701E3010230F0
:10185800E2000A168A1100200A128A150A168A1549
:1018680080250A128A15192D3308031D3C2C3D2C9E
:10187800652C00305B02323003195A02031C452CD8
:10188800462C652CE130A5008230A6000A168A1184
:101898001A220A128A150A168A1580250A128A152A
:1018A8000A168A15BA260A128A150A168A15C6252C
:1018B8000A128A1500300A168A11DC220A128A15C1
:1018C800192D0230620203186A2C6B2C6C2C192D0E
:1018D800043065020318712C722CC02C04303306B6
:1018E8000319772C782C7E2C05303306031D7D2CAC
:1018F8007E2CC02C043033060319832C842C892CAD
:101908003130AF000030B0008D2C3030AF000030E7
:10191800B0006508553E84002F088313800001300D
:10192800E5070A168A1100200A128A150A168A156E
:1019380080250A128A15013083120313E400A230AD
:10194800A5008430A6000A168A111A220A128A15DE
:10195800831203136508303E0A168A15CF250A122A
:101968008A153B3083120313A5008230A6000A169D
:101978008A111A220A128A15043083120313650683
:10198800031DC72CC82C192D0A128A11D6200A1239
:101998008A15720873040319D22CD32CE32CCF3088
:1019A80083120313A5008230A6000A168A111A2290
:1019B8000A128A15033083120313E700192D013028
:1019C80083120313E607DB30A5008430A6000A164D
:1019D8008A111A220A128A15831203136608303EE6
:1019E8000A168A15CF250A128A15A73083120313FF
:1019F800A5008530A6000A168A111A220A128A152D
:101A080035300A168A15CF250A128A153B308312FB
:101A18000313A5008230A6000A168A111A220A1298
:101A28008A15013083120313E70008000A168A1189
:101A3800BC200A128A15B33083120313A500813023
:101A4800A6000A168A111A220A128A15A9308312C8
:101A58000313A5008230A6000A168A111A220A1258
:101A68008A1500300A168A111F230A128A150A16C7
:101A78008A15B0270A128A1583120313CD00A72DE1
:101A880004304D06031D492D4A2D6C2D0A168A1562
:101A98007C250A128A15003A0319532D542D602DFE
:101AA8000A168A15EE250A128A1502300A168A11B4
:101AB800DC220A128A156B2D0A168A15BA260A1212
:101AC8008A1501300A168A11DC220A128A15282E74
:101AD8004D080A168A1113270A128A15282E4D0353
:101AE800031D772D782D922D9630A5008230A60003
:101AF8000A168A111A220A128A150A168A15BA268D
:101B08000A128A150A168A15C6250A128A1500307D
:101B18000A168A11DC220A128A156B2D4D080A1240
:101B28008A15B5230A128A15282E4D080A128A1515
:101B380048200A128A15282E4D080A168A113625B9
:101B48000A128A15282E0A168A1578250A128A1565
:101B580083120313C500C6014608003A0319B52DC0
:101B6800282E4508003A0319442D013A0319732D0C
:101B7800033A0319992D013A0319A02D073A0319BD
:101B8800282E013A0319282E033A0319282E013A60
:101B98000319282E282E0A128A154D210A128A1591
:101BA800502E0A128A11A9250A128A15502E0A16D1
:101BB8008A11B9250A128A15502E0A128A15672227
:101BC8000A128A15502E0A168A118D200A128A15B1
:101BD8000A168A15EE250A128A1502300A168A1183
:101BE800DC220A128A15502E0A128A158C260A122D
:101BF8008A15502E9330A5008130A6000A168A1146
:101C08001A220A128A150A168A15EE250A128A1548
:101C180002300A168A11DC220A128A15502E483020
:101C2800A5008130A6000A168A111A220A128A15FE
:101C38000A168A15EE250A128A1502300A168A1122
:101C4800DC220A128A15502E0A168A1578250A12DD
:101C58008A1583120313C500C6014608003A031902
:101C6800362E502E4508003A0319CF2D013A031994
:101C7800D52D033A0319DB2D013A0319E12D073A53
:101C88000319E72D013A0319F82D033A0319FE2D1C
:101C9800013A0319132E502E831203135408031903
:101CA800562E572E352DD4014730F2000030F30060
:101CB8000A128A11AB270A128A15473083120313B6
:101CC800C1000030C2000A168A11CB240A128A15F4
:101CD800003A0319702E712E7D2E4830831203139B
:101CE800A5008330A6000A168A111A220A128A153C
:101CF800352DBC3083120313A5008230A6000A16C6
:101D08008A111A220A128A15352D0A128A110C28EC
:101D18000A168A15D5260A128A1583120313C300D8
:101D28000A168A1532260A128A15831203134308E3
:101D3800031D9F2EA02EB72E2630F6008330F70005
:101D48008030F8000A168A112F200A128A15D2301C
:101D580083120313A5008130A6000A168A111A22DD
:101D68000A128A15EA2F3730F6008330F7008030E0
:101D7800F8000A168A112F200A128A15C030831219
:101D88000313A60043080A168A11A2210A128A150B
:101D9800F330F6008230F700C230F8000A168A11D4
:101DA8002F200A128A15EE3083120313A500813002
:101DB800A6000A168A111A220A128A1557308312A7
:101DC8000313A5008230A6000A168A111A220A12E5
:101DD8008A1583120313C401DB2F3530A40044088D
:101DE8000A128A1146200A128A15831203133C0824
:101DF8000A168A119A220A128A1572088312031384
:101E0800C1007308C2000A30F2000030F300440831
:101E1800013EF400003003180130F5000A168A115B
:101E280058220A128A157208303E0A168A15CF25DA
:101E38000A128A150A3083120313A0000030A10089
:101E48004408013EA200003003180130A3000A161E
:101E58008A112D210A128A15831203132008303E95
:101E68000A168A15CF250A128A1520300A168A15ED
:101E7800CF250A128A158312031335080A168A1504
:101E8800CF250A128A158312031336080A168A15F3
:101E9800CF250A128A153A300A168A15CF250A1252
:101EA8008A158312031337080A168A15CF250A12D2
:101EB8008A158312031338080A168A15CF250A12C1
:101EC8008A153A300A168A15CF250A128A158312FE
:101ED800031339080A168A15CF250A128A158312A0
:101EE80003133A080A168A15CF250A128A152030D4
:101EF8000A168A15CF250A128A1583120313420877
:101F0800FF00410884000A128A1100210A128A156A
:101F18000A168A15CF250A128A150130831203136F
:101F2800B10031084107B3004208B2000318B20AF1
:101F3800B11BB2033208B4003408FF003308840030
:101F48000A128A1100210A128A150A168A15CF2543
:101F58000A128A1520300A168A15CF250A128A1500
:101F6800831203133D080A168A15CF250A128A150B
:101F7800831203133E080A168A15CF250A128A15FA
:101F8800831203133F080A168A15CF250A128A15E9
:101F98003B3083120313A5008230A6000A168A116B
:101FA8001A220A128A15013083120313C407430840
:101FB8004402031CE02FE12FF12E0930A5008230E6
:101FC800A6000A168A111A220A128A1527308312C5
:101FD8000313B3000D30B2002530B100B10BF22F5E
:101FE800B20BF22FB30BF22FF92F02300A168A1117
:101FF800DC220A128A15080083120313E80108007C
:10200800F7000A168A1599250A168A11D0300A1679
:102018008A15F1260A168A1177080A168A15F126F2
:102028000A168A110A168A15AB250A168A11D130A2
:102038000A168A15F1260A168A1101300A168A1517
:102048006B270A168A11F8000A168A15A2250A169D
:102058008A1178080800F20178080A168A154B27B1
:102068000A168A114D28F201F20A7708FF0076084D
:1020780084000A128A1100210A168A110A168A1582
:102088004B270A168A110130F6070318F70A0030A1
:10209800F707770883120313FF00760884000A12F3
:1020A8008A1100210A168A11003A031D5C285D284E
:1020B80037280800F800F90185280A168A15992595
:1020C8000A168A1178080A168A15F1260A168A113C
:1020D8007208730403197128722879280A168A1558
:1020E800A2250A168A1101308C280A168A15A225FB
:1020F8000A168A110130F907A630F700F70B822873
:10210800000032307902031C8A288B2861280030AD
:1021180008000A168A1532260A168A111530F600A2
:102128008330F7008030F8000A168A112F200A162B
:102138008A11F23083120313A5008330A6000A1611
:102148008A111A220A168A11083083120313A90069
:102158009D30A8000530A700A70BB028A80BB02811
:10216800A90BB0280A168A150F270A168A11080023
:102178000A168A15E3250A168A110A168A15BD2534
:102188000A168A11003083120313BC000030BB000A
:102198002530BA008030B9000A168A11DD210A16E6
:1021A8008A11003083120313BC000130BB00863053
:1021B800BA00A030B9000A168A11F4200A168A114A
:1021C8000A168A1522260A168A110A168A156F26F1
:1021D8000A168A110A168A1586260A168A1108000E
:1021E8008312031394151411941014103908BD00A8
:1021F8003A08BE003B08BF003C08C000023003108C
:10220800BD0DBE0DBF0DC00DFF3E031D03294008C7
:10221800AF003F08AE003E08AD003D08AC000130FD
:10222800B3003130B2002D30B1000030B0000A16D2
:102238008A1165240A168A11831203132C08FF3E9B
:102248008316031393008715071683120313941636
:10225800080083120313200821040319342935299F
:1022680062290130F900412901300310A00DA10DA8
:10227800FF3E031D39290130F907A11F44294529CB
:10228800382921082302031D4B2920082202031C98
:102298004E294F2955292008A2022108031CA3030F
:1022A800A30201300310A10CA00CFF3E031D562908
:1022B8000130F902031D6129622945292308A1007B
:1022C8002208A0000800831203132108F300200845
:1022D800F200A030F4000A168A1513260A168A118D
:1022E80083120313A3000A168A1599250A168A1160
:1022F8008312031323080A168A15F1260A168A116F
:102308008312031320080A168A15F1260A168A1161
:102318008312031322080A168A15F1260A168A114F
:102328000A168A15A2250A168A118312031323088E
:102338000A168A115E200A168A11080083120313EE
:10234800A9002608A4000A30F2000030F30029088A
:10235800A700A8012708F4002808F5000A168A1122
:1023680058220A168A117208303E0A168A15432620
:102378000A168A11831203132608013EA4000A30A4
:10238800A0000030A1002908A700A8012708A20082
:102398002808A3000A168A112D210A168A11831209
:1023A80003132008303E0A168A1543260A168A1196
:1023B8000800831203139817831603131812831245
:1023C80003131816831603131815831203133908F9
:1023D800BD003A08BE003B08BF003C08C0000430FE
:1023E8000310BD0DBE0DBF0DC00DFF3E031DF4292A
:1023F8004008AF003F08AE003E08AD003D08AC0005
:102408000130B3003130B2002D30B1000030B000DF
:102418000A168A1165240A168A11831203132C08D6
:10242800FF3E83160313990098160800472A2608CA
:10243800FF00250884000A128A1100210A168A1151
:102448000A3A031D282A292A2F2A0D300A168A1526
:10245800CF250A168A11831203132608FF002508C0
:1024680084000A128A1100210A168A110A168A158E
:10247800CF250A168A11013083120313A507031802
:10248800A60A0030A607831203132608FF002508B2
:1024980084000A128A1100210A168A11003A031DC3
:1024A800562A572A1B2A0800F601F70172087304F6
:1024B80003195F2A602A952A0130F8006C2A013036
:1024C8000310F20DF30DFF3E031D642A0130F807D7
:1024D800F31F6F2A702A632A01300310F60DF70DD7
:1024E800FF3E031D712A73087502031D7D2A7208B9
:1024F8007402031C802A812A882A7208F40273084D
:10250800031CF503F502761401300310F30CF20CEA
:10251800FF3E031D892A0130F802031D942A952ADB
:10252800702A7708F3007608F2000800F400C42A3D
:10253800A130F2008530F300DB2A9B30F2008530B1
:10254800F300DB2A8C30F2008530F300DB2A8F3071
:10255800F2008530F300DB2A9230F2008530F30078
:10256800DB2A9530F2008530F300DB2A8630F20052
:102578008530F300DB2A8330F2008530F300DB2A54
:102588007408303A03199C2A013A0319A12A033A1C
:102598000319A62A013A0319AB2A073A0319B02AE4
:1025A800013A0319B52A763A0319BA2ABF2A08004C
:1025B80083120313AA000A168A1532260A168A11EC
:1025C800613083120313A5008530A6000A168A110C
:1025D8001A220A168A11831203132A08A70027074A
:1025E800123E840081300318013EFF000A128A114E
:1025F80000210A168A11A8000A128A1100210A1657
:102608008A11A9002808A5002908A6000A168A1117
:102618001A220A168A113C3083120313A50082304D
:10262800A6000A168A111A220A168A11831203139F
:102638002A08DE000800F3007303031D242B252B52
:102648002A2B8312031306083F39642B3F30831269
:1026580003130605F2003F3072060319342B352B9D
:10266800582B7B080319392B3A2B582BF401F50109
:102678000130F4070318F50A0030F5070130750238
:10268800F43003197402031C4A2B4B2B3C2B3F30AC
:10269800831203130605F2003F3072060319552B07
:1026A800562B632BFB01252B3F300605F2003F30EC
:1026B8007206031D602B612B632B0130FB003F303A
:1026C80008007808F3007708F200A030F4000A1632
:1026D8008A1513260A168A1183120313A100780893
:1026E800F3007708F200A130F4000A168A151326C1
:1026F8000A168A1183120313A2000A168A1599254D
:102708000A168A118312031321080A168A15F1265C
:102718000A168A1177080A168A15F1260A168A11E6
:102728000A168A15AB250A168A1183120313220882
:102738000A168A15F1260A168A1101300A168A1510
:102748006B270A168A1183120313A0000A168A152A
:10275800A2250A168A118312031320080800C33021
:10276800F700CD30F600F60BB72BF70BB72BF201BD
:1027780033300A168A154B270A168A111B30F700C0
:102788009E30F600F60BC62BF70BC62B0000F201A5
:1027980033300A168A154B270A168A11A630F60016
:1027A800F60BD42B0000F20133300A168A154B279A
:1027B8000A168A11DF2BE02B0000F20138300A16C6
:1027C8008A154B270A168A11A630F600F60BEA2B53
:1027D8000000F20101300A168A154B270A168A11E1
:1027E8000430F7003D30F600F60BF82BF70BF82B0A
:1027F800FD2BF2010C300A168A154B270A168A118E
:10280800A630F600F60B062C00000800831203130E
:10281800A900240884006430F2000030F30029087D
:10282800A700A8012708F4002808F5000A168A114D
:1028380058220A168A117208303E831380008312C8
:102848000313250884000A30A0000030A1000A30D4
:10285800F2000030F3002908A700A8012708F400B7
:102868002808F5000A168A1158220A168A117308D0
:1028780083120313A3007208A2000A168A112D21DD
:102888000A168A11831203132008303E831380002E
:10289800260884000A30A0000030A1002908A700FB
:1028A800A8012708A2002808A3000A168A112D21CA
:1028B8000A168A11831203132008303E83138000FE
:1028C8000800003083120313B7000030B600003050
:1028D800B5000030B4002F082E042D042C04031971
:1028E800762C772CC22C0130B800852C0130F700EB
:1028F8000310AC0DAD0DAE0DAF0DF70B7C2C0130F8
:10290800B807AF1F882C892C7A2C0130F7000310E8
:10291800B40DB50DB60DB70DF70B8B2C2F08330280
:10292800031DA02C2E083202031DA02C2D083102F5
:10293800031DA02C2C083002031CA32CA42CB32CA0
:102948002C08B0022D08031C2D0FB1022E08031C01
:102958002E0FB2022F08031C2F0FB30234140130BC
:102968000310AF0CAE0CAD0CAC0CFF3E031DB42C29
:102978000130B802031DC12CC22C892C3708AF00C6
:102988003608AE003508AD003408AC0008000A1659
:102998008A15B4250A168A1183120313C4000A166D
:1029A8008A15D9250A168A1183120313C3000A301F
:1029B8004402031CE02CE12CE22CC4014108AA00CB
:1029C8004208AB0044080A168A1142260A168A11E0
:1029D800003A031DF02CF12CF32C0030352D0A3071
:1029E80083120313A0000030A1004408013EA20096
:1029F800003003180130A3000A168A112D210A1687
:102A08008A11831203132008C4000A3043020318F2
:102A18000E2D0F2D112D0130C3070030A000A1008D
:102A28004408A2000A168A1167210A168A11003A78
:102A3800031D1F2D202D212DF12C0130831203138E
:102A4800A0000030A1004308A2000A168A116721DD
:102A58000A168A11003A031D322D332D342DF12C1C
:102A68000130080083120313AE000A168A15D52612
:102A78000A168A1183120313AD002D08031D452D74
:102A8800462D602D2E03031D4A2D4B2DB82D0530E4
:102A9800A5008530A6000A168A111A220A168A117C
:102AA8000A168A158A250A168A1102300A168A1108
:102AB800DC220A168A11B82D02302E06031D652D58
:102AC800662D862D2D08FF3EAB00FF300318003021
:102AD800AC005D08FF002C08031D742D2B087F0235
:102AE8000318772D782D862D0130DD070130EB0096
:102AF8001230A5008530A6000A168A111A220A1675
:102B08008A11B82D03302E06031D8B2D8C2D9F2D79
:102B18005D080319902D912D9F2D0130DD020130A4
:102B2800EB001F30A5008530A6000A168A111A226C
:102B38000A168A11B82D2E03031DA32DA42DB82D16
:102B48000530A5008530A6000A168A111A220A1631
:102B58008A110A168A158A250A168A1102300A1657
:102B68008A11DC220A168A110800831203135F08EF
:102B78007A06031DC02DC12DC22D412E5F08FA0013
:102B88008030A4003E300A168A1543260A168A1198
:102B9800813083120313A40020300A168A154326B5
:102BA8000A168A11831203135F08A6002607223E1D
:102BB800840081300318013EFF000A128A110021A7
:102BC8000A168A11A7000A128A1100210A168A1108
:102BD800A8002708F6002808F7008230F8000A162F
:102BE8008A112F200A168A11C03083120313A400F9
:102BF80020300A168A1543260A168A11C130831214
:102C08000313A40020300A168A1543260A168A11CF
:102C18000530831203135F020318132E142E362E69
:102C28005F08A6002607023E223E84008130031872
:102C3800013EFF000A128A1100210A168A11A70014
:102C48000A128A1100210A168A11A8002708F6001C
:102C58002808F700C230F8000A168A112F200A1631
:102C68008A11412E2230F6008430F700C230F80075
:102C78000A168A112F200A168A11080083120313D4
:102C8800B0003008AC00AD012C08F2002D08F300AC
:102C98000B30F4000030F5000A168A158B270A1647
:102CA8008A117208023E83120313BC0073080318CA
:102CB800013E003EBD003130F2003230F3002A08F8
:102CC800840083172B1C831300080A168A155826BC
:102CD8000A168A113330F2003430F30083120313DA
:102CE8002A08013EAC002B080318013E003EAD0047
:102CF8002C08840083172D1C831300080A168A15D4
:102D080058260A168A113530F2003630F30083123D
:102D180003132A08023EAC002B080318013E003EAC
:102D2800AD002C08840083172D1C831300080A1695
:102D38008A1558260A168A11473083120313B700DA
:102D48002A08053EAC002B080318013E003EAD00E2
:102D58002C08840083172D1C83138018B42EB52EDD
:102D6800CC2E2A08043EAC002B080318013E003E76
:102D7800AD002C08840083172D1C83130008073925
:102D8800303EAE00AF012E08BE002F08BF00D02E87
:102D98004330BE000030BF003E08B8003930A40000
:102DA8003A30A5003B30A6002A08033EAC002B08A9
:102DB8000318013E003EAD002C08840083172D1C2B
:102DC800831300080A168A110A240A168A11831224
:102DD8000313C00140083C07A0003D0803183D0A42
:102DE800A1004008313E840083130008A2000A169F
:102DF8008A1167210A168A11003A031D042F052F2C
:102E0800072F0030122F013083120313C0070B3035
:102E18004002031C102F112FEE2E013008008312E0
:102E28000313BD0000300A168A1104200A168A11FD
:102E380083120313D00001300A168A1104200A16DF
:102E48008A1183120313CF0002300A168A11042054
:102E58000A168A1183120313CE000030AF00003027
:102E6800AE000330AD00FF30AC0000300A168A1502
:102E78009F260A168A11720883120313B900730871
:102E8800BA00BB01BC013C08A3003B08A2003A08F9
:102E9800A1003908A0000030A7000030A6000030CB
:102EA800A5006430A4000A128A1500200A168A11A7
:102EB800831203132308B3002208B2002108B100CB
:102EC8002008B0000A168A1165240A168A1183128E
:102ED80003132C08D200D318722F732F9B2F3D0396
:102EE800031D772F782F7D2F0330D3040130D400B2
:102EF8009B2F02303D06031D822F832F8D2F053017
:102F080051020318882F892F8D2F0130D1075314B0
:102F18007A2F03303D06031D922F932F9B2F5108C4
:102F28000319972F982F9B2F0130D1028B2FD31C79
:102F38009E2F9F2FAD2FEA18A22FA32FAD2FE93078
:102F4800A5008430A6000A168A111A220A168A11C8
:102F5800F92F510869060319B22FB32FE82FF7305C
:102F6800A5008430A6000A168A111A220A168A11A8
:102F7800831203135108B90039072E3E84008130AB
:102F88000318013EFF000A128A1100210A168A114D
:102F9800BA000A128A1100210A168A11BB003A08DF
:102FA800A5003B08A6000A168A111A220A168A11D9
:102FB8003C3083120313A5008230A6000A168A113A
:102FC8001A220A168A11F92F531CEB2FEC2FF92F0E
:102FD8006A18EF2FF02FF92F8230A5008230A60053
:102FE8000A168A111A220A168A1183120313530821
:082FF800EA005108E90008009D
:103AEC00FF340134831203135E080800831203139E
:103AFC006008080083120313DA01DB0108000134AB
:103B0C00FF34FF34FF34FF3483120313DD01013023
:103B1C00EB00DC01080064008001840A0406031930
:103B2C0000340406922D0A168A15F9250A168A15F0
:103B3C0083160313111408000A168A15F9250A16A0
:103B4C008A1583160313111508000A168A15F92510
:103B5C000A168A1583160313911408000030F70017
:103B6C00F8000A168A1165230A168A150800FF3018
:103B7C00831603138600FF3083120313860008009C
:103B8C00FF3083120313EF00FF30EE00FF30ED0027
:103B9C00080083120313A4000C1ED52DD62DD22D94
:103BAC002408990008000130F7000030F8000A16CC
:103BBC008A1165230A168A150800831603138801D7
:103BCC00091189100A168A11B3230A168A150800DE
:103BDC0083120313DF01FF30FA000A168A158025C1
:103BEC000A168A150800831603131419FE2DFF2DCF
:103BFC00F92D11081F39031D042E052EF92D08006F
:103C0C0083120313E0016D30A5008230A6000A1662
:103C1C008A111A220A168A1508007308F60072080F
:103C2C00F50007300310F60CF50CFF3E031D182EA3
:103C3C00750802397404080000300A168A11042031
:103C4C000A168A15F900F70179087F390A168A15C0
:103C5C002D270A168A150800F20101300A168A155A
:103C6C004B270A168A150D30F700FB30F600F60BC1
:103C7C003D2EF70B3D2E422E080083120313A50098
:103C8C00F20124080A168A154B270A168A15F20126
:103C9C00F20A8312031325080A168A154B270A16F3
:103CAC008A150800F500720884007508F4000430C9
:103CBC000310F40CFF3E031D5E2E74080F39303ECA
:103CCC00831380007308840075080F39303E800020
:103CDC000800831203131F139F17831603131F135C
:103CEC00831203139F111F129F12831603139F1726
:103CFC001F109F101F119F11831203131F14080014
:103D0C00831603130108C039073881003D30831234
:103D1C00031381000B118B16313090000B308F0088
:103D2C00DC308E000C10831603130C140B178B173E
:103D3C000800F5007508F40003300310F40DFF3E85
:103D4C00031DA32E831203131F08C73974049F008D
:103D5C001F151F19B22EB32EAF2E1E08F30083169B
:103D6C0003131E08F200080083120313E501E4019B
:103D7C00E301E201053066020318C52EC62EC82EDB
:103D8C00E701CA2E0430E7000A168A1100200A1631
:103D9C008A150A168A1580250A168A1508000A162D
:103DAC008A15D9250A168A1583120313A7000B301E
:103DBC0027020318E22EE32EEB2E2708A300A40102
:103DCC002308A5002408A600EF2E0A30A500003019
:103DDC00A60025080800F6000A168A15F9250A1609
:103DEC008A1576088312031393000A168A15F9258F
:103DFC000A168A15031083160313111F03140030BF
:103E0C0003180130F400F5017408F2007508F30092
:103E1C000800003083120313A000A100A2010A16AF
:103E2C008A1167210A168A15003A031D1E2F1F2FAF
:103E3C00202F2C2F013083120313A0000030A1007F
:103E4C00A2010A168A1167210A168A150800F800C1
:103E5C000A168A1599250A168A15D0300A168A155B
:103E6C00F1260A168A1577080A168A15F1260A16FB
:103E7C008A1578080A168A15F1260A168A150A1662
:103E8C008A15A2250A168A150800F50072184F2FFC
:103E9C00532F831203130915562F83120313091181
:103EAC00750888008914A630F300F30B5B2F000013
:103EBC008312031389101B30F4009E30F300F30BB4
:103ECC00652FF40B652F00000800F2000A168A1506
:103EDC00F9250A168A158316031391150A168A15E5
:103EEC00F9250A168A15831203131308F3007203BB
:103EFC000319812F852F831603139116882F831690
:103F0C0003139112111673080800F601F701721CC5
:103F1C00902F912F972F7408F6070318F70A75083E
:103F2C00F70701300310F40DF50DFF3E031D982F1C
:103F3C0001300310F30CF20CFF3E031D9F2F72088F
:103F4C007304031DAA2FAB2F8D2F7708F30076086F
:103F5C00F2000800F600C02F0130D42F0230D42F0D
:103F6C000330D42F0430D42F0530D42F0630D42F67
:103F7C000030D42F76081F3A0319BC2F303A03199E
:103F8C00BA2F183A0319B82F0C3A0319B62F063A60
:103F9C000319B42F033A0319B22FBE2F08000B1DBF
:103FAC00D82FD92FE02F3D308312031381000B1132
:103FBC000130E807831203130C1CE52FE62FF92FB1
:103FCC000B308F00DC308E000C105A0A031DF32FBF
:103FDC005B0A0319F22FF32FF92F0130DA070318BC
:103FEC00DB0A0030DB0771088A00700E8300FE0EBE
:043FFC007E0E09002C
:02400E007A3FF7
:00000001FF
